{
  "_format": "hh-sol-artifact-1",
  "contractName": "BettingV2",
  "sourceName": "contracts/BettingV2.sol",
  "abi": [
    {
      "anonymous": false,
      "inputs": [
        {
          "indexed": false,
          "internalType": "address",
          "name": "previousAdmin",
          "type": "address"
        },
        {
          "indexed": false,
          "internalType": "address",
          "name": "newAdmin",
          "type": "address"
        }
      ],
      "name": "AdminChanged",
      "type": "event"
    },
    {
      "anonymous": false,
      "inputs": [
        {
          "indexed": true,
          "internalType": "address",
          "name": "beacon",
          "type": "address"
        }
      ],
      "name": "BeaconUpgraded",
      "type": "event"
    },
    {
      "anonymous": false,
      "inputs": [
        {
          "indexed": true,
          "internalType": "uint256",
          "name": "poolId",
          "type": "uint256"
        },
        {
          "indexed": true,
          "internalType": "address",
          "name": "player",
          "type": "address"
        },
        {
          "indexed": true,
          "internalType": "uint256",
          "name": "teamId",
          "type": "uint256"
        },
        {
          "indexed": false,
          "internalType": "uint256",
          "name": "amount",
          "type": "uint256"
        }
      ],
      "name": "BetPlaced",
      "type": "event"
    },
    {
      "anonymous": false,
      "inputs": [
        {
          "indexed": true,
          "internalType": "uint256",
          "name": "poolId",
          "type": "uint256"
        },
        {
          "indexed": true,
          "internalType": "address",
          "name": "player",
          "type": "address"
        },
        {
          "indexed": false,
          "internalType": "uint256",
          "name": "amount",
          "type": "uint256"
        }
      ],
      "name": "CommissionClaimed",
      "type": "event"
    },
    {
      "anonymous": false,
      "inputs": [
        {
          "indexed": false,
          "internalType": "uint8",
          "name": "version",
          "type": "uint8"
        }
      ],
      "name": "Initialized",
      "type": "event"
    },
    {
      "anonymous": false,
      "inputs": [
        {
          "indexed": true,
          "internalType": "uint256",
          "name": "poolId",
          "type": "uint256"
        },
        {
          "indexed": true,
          "internalType": "address",
          "name": "player",
          "type": "address"
        },
        {
          "indexed": false,
          "internalType": "uint256",
          "name": "amount",
          "type": "uint256"
        }
      ],
      "name": "RefundClaimed",
      "type": "event"
    },
    {
      "anonymous": false,
      "inputs": [
        {
          "indexed": true,
          "internalType": "bytes32",
          "name": "role",
          "type": "bytes32"
        },
        {
          "indexed": true,
          "internalType": "bytes32",
          "name": "previousAdminRole",
          "type": "bytes32"
        },
        {
          "indexed": true,
          "internalType": "bytes32",
          "name": "newAdminRole",
          "type": "bytes32"
        }
      ],
      "name": "RoleAdminChanged",
      "type": "event"
    },
    {
      "anonymous": false,
      "inputs": [
        {
          "indexed": true,
          "internalType": "bytes32",
          "name": "role",
          "type": "bytes32"
        },
        {
          "indexed": true,
          "internalType": "address",
          "name": "account",
          "type": "address"
        },
        {
          "indexed": true,
          "internalType": "address",
          "name": "sender",
          "type": "address"
        }
      ],
      "name": "RoleGranted",
      "type": "event"
    },
    {
      "anonymous": false,
      "inputs": [
        {
          "indexed": true,
          "internalType": "bytes32",
          "name": "role",
          "type": "bytes32"
        },
        {
          "indexed": true,
          "internalType": "address",
          "name": "account",
          "type": "address"
        },
        {
          "indexed": true,
          "internalType": "address",
          "name": "sender",
          "type": "address"
        }
      ],
      "name": "RoleRevoked",
      "type": "event"
    },
    {
      "anonymous": false,
      "inputs": [
        {
          "indexed": true,
          "internalType": "uint256",
          "name": "poolId",
          "type": "uint256"
        },
        {
          "indexed": true,
          "internalType": "address",
          "name": "player",
          "type": "address"
        },
        {
          "indexed": false,
          "internalType": "uint256",
          "name": "amount",
          "type": "uint256"
        }
      ],
      "name": "TeamRefundClaimed",
      "type": "event"
    },
    {
      "anonymous": false,
      "inputs": [
        {
          "indexed": true,
          "internalType": "address",
          "name": "implementation",
          "type": "address"
        }
      ],
      "name": "Upgraded",
      "type": "event"
    },
    {
      "anonymous": false,
      "inputs": [
        {
          "indexed": true,
          "internalType": "uint256",
          "name": "poolId",
          "type": "uint256"
        },
        {
          "indexed": true,
          "internalType": "address",
          "name": "player",
          "type": "address"
        },
        {
          "indexed": false,
          "internalType": "uint256",
          "name": "amount",
          "type": "uint256"
        }
      ],
      "name": "WinningsClaimed",
      "type": "event"
    },
    {
      "inputs": [],
      "name": "ADMIN_ROLE",
      "outputs": [
        {
          "internalType": "bytes32",
          "name": "",
          "type": "bytes32"
        }
      ],
      "stateMutability": "view",
      "type": "function"
    },
    {
      "inputs": [],
      "name": "BPS_UNIT",
      "outputs": [
        {
          "internalType": "uint256",
          "name": "",
          "type": "uint256"
        }
      ],
      "stateMutability": "view",
      "type": "function"
    },
    {
      "inputs": [],
      "name": "COMMISION",
      "outputs": [
        {
          "internalType": "uint8",
          "name": "",
          "type": "uint8"
        }
      ],
      "stateMutability": "view",
      "type": "function"
    },
    {
      "inputs": [],
      "name": "DEFAULT_ADMIN_ROLE",
      "outputs": [
        {
          "internalType": "bytes32",
          "name": "",
          "type": "bytes32"
        }
      ],
      "stateMutability": "view",
      "type": "function"
    },
    {
      "inputs": [],
      "name": "MIN_BET",
      "outputs": [
        {
          "internalType": "uint256",
          "name": "",
          "type": "uint256"
        }
      ],
      "stateMutability": "view",
      "type": "function"
    },
    {
      "inputs": [],
      "name": "SCALING_FACTOR",
      "outputs": [
        {
          "internalType": "uint256",
          "name": "",
          "type": "uint256"
        }
      ],
      "stateMutability": "view",
      "type": "function"
    },
    {
      "inputs": [
        {
          "internalType": "bytes",
          "name": "sig",
          "type": "bytes"
        }
      ],
      "name": "_splitSignature",
      "outputs": [
        {
          "internalType": "bytes32",
          "name": "r",
          "type": "bytes32"
        },
        {
          "internalType": "bytes32",
          "name": "s",
          "type": "bytes32"
        },
        {
          "internalType": "uint8",
          "name": "v",
          "type": "uint8"
        }
      ],
      "stateMutability": "pure",
      "type": "function"
    },
    {
      "inputs": [
        {
          "internalType": "address",
          "name": "who_",
          "type": "address"
        },
        {
          "internalType": "uint256",
          "name": "poolId_",
          "type": "uint256"
        }
      ],
      "name": "allPayouts",
      "outputs": [
        {
          "internalType": "uint256",
          "name": "",
          "type": "uint256"
        },
        {
          "internalType": "uint256",
          "name": "",
          "type": "uint256"
        },
        {
          "internalType": "uint256",
          "name": "",
          "type": "uint256"
        }
      ],
      "stateMutability": "view",
      "type": "function"
    },
    {
      "inputs": [
        {
          "internalType": "uint256",
          "name": "",
          "type": "uint256"
        }
      ],
      "name": "bets",
      "outputs": [
        {
          "internalType": "uint256",
          "name": "id",
          "type": "uint256"
        },
        {
          "internalType": "uint256",
          "name": "poolId",
          "type": "uint256"
        },
        {
          "internalType": "uint256",
          "name": "teamId",
          "type": "uint256"
        },
        {
          "internalType": "uint256",
          "name": "amount",
          "type": "uint256"
        },
        {
          "internalType": "address",
          "name": "player",
          "type": "address"
        },
        {
          "internalType": "uint256",
          "name": "createdAt",
          "type": "uint256"
        }
      ],
      "stateMutability": "view",
      "type": "function"
    },
    {
      "inputs": [],
      "name": "bettingAdmin",
      "outputs": [
        {
          "internalType": "contract IBettingAdmin",
          "name": "",
          "type": "address"
        }
      ],
      "stateMutability": "view",
      "type": "function"
    },
    {
      "inputs": [
        {
          "internalType": "uint256",
          "name": "poolId_",
          "type": "uint256"
        },
        {
          "internalType": "uint256",
          "name": "teamId_",
          "type": "uint256"
        }
      ],
      "name": "calculateOdds",
      "outputs": [
        {
          "internalType": "uint256",
          "name": "",
          "type": "uint256"
        }
      ],
      "stateMutability": "view",
      "type": "function"
    },
    {
      "inputs": [
        {
          "internalType": "uint256",
          "name": "poolId_",
          "type": "uint256"
        }
      ],
      "name": "claimCommission",
      "outputs": [],
      "stateMutability": "nonpayable",
      "type": "function"
    },
    {
      "inputs": [
        {
          "internalType": "uint256",
          "name": "poolId_",
          "type": "uint256"
        },
        {
          "internalType": "uint256",
          "name": "amount_",
          "type": "uint256"
        },
        {
          "internalType": "uint256",
          "name": "signedBlockNum_",
          "type": "uint256"
        },
        {
          "internalType": "bytes",
          "name": "signature_",
          "type": "bytes"
        }
      ],
      "name": "claimCommissionWithSignature",
      "outputs": [],
      "stateMutability": "nonpayable",
      "type": "function"
    },
    {
      "inputs": [
        {
          "internalType": "address",
          "name": "player_",
          "type": "address"
        },
        {
          "internalType": "uint256",
          "name": "poolId_",
          "type": "uint256"
        }
      ],
      "name": "claimPayment",
      "outputs": [],
      "stateMutability": "nonpayable",
      "type": "function"
    },
    {
      "inputs": [
        {
          "internalType": "uint256",
          "name": "poolId_",
          "type": "uint256"
        }
      ],
      "name": "claimRefund",
      "outputs": [],
      "stateMutability": "nonpayable",
      "type": "function"
    },
    {
      "inputs": [
        {
          "internalType": "address",
          "name": "",
          "type": "address"
        },
        {
          "internalType": "uint256",
          "name": "",
          "type": "uint256"
        }
      ],
      "name": "claimedCommissions",
      "outputs": [
        {
          "internalType": "uint256",
          "name": "",
          "type": "uint256"
        }
      ],
      "stateMutability": "view",
      "type": "function"
    },
    {
      "inputs": [
        {
          "internalType": "address",
          "name": "",
          "type": "address"
        },
        {
          "internalType": "uint256",
          "name": "",
          "type": "uint256"
        }
      ],
      "name": "claimedPayouts",
      "outputs": [
        {
          "internalType": "uint256",
          "name": "",
          "type": "uint256"
        }
      ],
      "stateMutability": "view",
      "type": "function"
    },
    {
      "inputs": [
        {
          "internalType": "address",
          "name": "",
          "type": "address"
        },
        {
          "internalType": "uint256",
          "name": "",
          "type": "uint256"
        }
      ],
      "name": "claimedRefunds",
      "outputs": [
        {
          "internalType": "uint256",
          "name": "",
          "type": "uint256"
        }
      ],
      "stateMutability": "view",
      "type": "function"
    },
    {
      "inputs": [],
      "name": "erc20Contract",
      "outputs": [
        {
          "internalType": "contract IERC20Upgradeable",
          "name": "",
          "type": "address"
        }
      ],
      "stateMutability": "view",
      "type": "function"
    },
    {
      "inputs": [
        {
          "internalType": "uint256",
          "name": "amount_",
          "type": "uint256"
        }
      ],
      "name": "estimateCommision",
      "outputs": [
        {
          "internalType": "uint256",
          "name": "",
          "type": "uint256"
        }
      ],
      "stateMutability": "pure",
      "type": "function"
    },
    {
      "inputs": [
        {
          "internalType": "address",
          "name": "player_",
          "type": "address"
        },
        {
          "internalType": "uint256",
          "name": "poolId_",
          "type": "uint256"
        },
        {
          "internalType": "uint256",
          "name": "amount_",
          "type": "uint256"
        },
        {
          "internalType": "uint256",
          "name": "signedBlockNum_",
          "type": "uint256"
        }
      ],
      "name": "getMessageHash",
      "outputs": [
        {
          "internalType": "bytes32",
          "name": "",
          "type": "bytes32"
        }
      ],
      "stateMutability": "pure",
      "type": "function"
    },
    {
      "inputs": [
        {
          "internalType": "uint256",
          "name": "poolId_",
          "type": "uint256"
        }
      ],
      "name": "getPool",
      "outputs": [
        {
          "components": [
            {
              "internalType": "uint256",
              "name": "id",
              "type": "uint256"
            },
            {
              "internalType": "uint256",
              "name": "numberOfTeams",
              "type": "uint256"
            },
            {
              "internalType": "string",
              "name": "eventName",
              "type": "string"
            },
            {
              "internalType": "uint256",
              "name": "totalBets",
              "type": "uint256"
            },
            {
              "internalType": "uint256",
              "name": "totalAmount",
              "type": "uint256"
            },
            {
              "internalType": "uint256",
              "name": "payoutClaimed",
              "type": "uint256"
            },
            {
              "internalType": "uint256",
              "name": "totalCommissions",
              "type": "uint256"
            },
            {
              "internalType": "uint256",
              "name": "commissionsClaimed",
              "type": "uint256"
            },
            {
              "internalType": "enum Storage.PoolStatus",
              "name": "status",
              "type": "uint8"
            },
            {
              "internalType": "uint256[]",
              "name": "winners",
              "type": "uint256[]"
            },
            {
              "internalType": "uint256",
              "name": "startTime",
              "type": "uint256"
            },
            {
              "internalType": "uint256",
              "name": "endTime",
              "type": "uint256"
            },
            {
              "internalType": "contract IERC1155PresetMinterPauser",
              "name": "mintContract",
              "type": "address"
            },
            {
              "internalType": "bool",
              "name": "commissionDisabled",
              "type": "bool"
            },
            {
              "internalType": "bool",
              "name": "paymentDisabled",
              "type": "bool"
            }
          ],
          "internalType": "struct Storage.Pool",
          "name": "",
          "type": "tuple"
        }
      ],
      "stateMutability": "view",
      "type": "function"
    },
    {
      "inputs": [
        {
          "internalType": "uint256",
          "name": "poolId_",
          "type": "uint256"
        },
        {
          "internalType": "uint256",
          "name": "teamId_",
          "type": "uint256"
        }
      ],
      "name": "getPoolTeam",
      "outputs": [
        {
          "components": [
            {
              "internalType": "uint256",
              "name": "id",
              "type": "uint256"
            },
            {
              "internalType": "string",
              "name": "name",
              "type": "string"
            },
            {
              "internalType": "enum Storage.TeamStatus",
              "name": "status",
              "type": "uint8"
            },
            {
              "internalType": "uint256",
              "name": "totalAmount",
              "type": "uint256"
            }
          ],
          "internalType": "struct Storage.Team",
          "name": "",
          "type": "tuple"
        }
      ],
      "stateMutability": "view",
      "type": "function"
    },
    {
      "inputs": [
        {
          "internalType": "uint256",
          "name": "poolId_",
          "type": "uint256"
        }
      ],
      "name": "getPoolTeams",
      "outputs": [
        {
          "components": [
            {
              "internalType": "uint256",
              "name": "id",
              "type": "uint256"
            },
            {
              "internalType": "string",
              "name": "name",
              "type": "string"
            },
            {
              "internalType": "enum Storage.TeamStatus",
              "name": "status",
              "type": "uint8"
            },
            {
              "internalType": "uint256",
              "name": "totalAmount",
              "type": "uint256"
            }
          ],
          "internalType": "struct Storage.Team[]",
          "name": "",
          "type": "tuple[]"
        }
      ],
      "stateMutability": "view",
      "type": "function"
    },
    {
      "inputs": [
        {
          "internalType": "bytes32",
          "name": "role",
          "type": "bytes32"
        }
      ],
      "name": "getRoleAdmin",
      "outputs": [
        {
          "internalType": "bytes32",
          "name": "",
          "type": "bytes32"
        }
      ],
      "stateMutability": "view",
      "type": "function"
    },
    {
      "inputs": [],
      "name": "getTotalPools",
      "outputs": [
        {
          "internalType": "uint256",
          "name": "",
          "type": "uint256"
        }
      ],
      "stateMutability": "view",
      "type": "function"
    },
    {
      "inputs": [
        {
          "internalType": "address",
          "name": "userAddress_",
          "type": "address"
        },
        {
          "internalType": "uint256",
          "name": "poolId_",
          "type": "uint256"
        }
      ],
      "name": "getUserBets",
      "outputs": [
        {
          "internalType": "uint256[]",
          "name": "",
          "type": "uint256[]"
        }
      ],
      "stateMutability": "view",
      "type": "function"
    },
    {
      "inputs": [
        {
          "internalType": "bytes32",
          "name": "role",
          "type": "bytes32"
        },
        {
          "internalType": "address",
          "name": "account",
          "type": "address"
        }
      ],
      "name": "grantRole",
      "outputs": [],
      "stateMutability": "nonpayable",
      "type": "function"
    },
    {
      "inputs": [
        {
          "internalType": "bytes32",
          "name": "role",
          "type": "bytes32"
        },
        {
          "internalType": "address",
          "name": "account",
          "type": "address"
        }
      ],
      "name": "hasRole",
      "outputs": [
        {
          "internalType": "bool",
          "name": "",
          "type": "bool"
        }
      ],
      "stateMutability": "view",
      "type": "function"
    },
    {
      "inputs": [
        {
          "internalType": "address",
          "name": "bettingAdmin_",
          "type": "address"
        }
      ],
      "name": "initialize",
      "outputs": [],
      "stateMutability": "nonpayable",
      "type": "function"
    },
    {
      "inputs": [
        {
          "internalType": "address",
          "name": "player_",
          "type": "address"
        },
        {
          "internalType": "uint256",
          "name": "poolId_",
          "type": "uint256"
        },
        {
          "internalType": "uint256",
          "name": "teamId_",
          "type": "uint256"
        },
        {
          "internalType": "uint256",
          "name": "amount_",
          "type": "uint256"
        }
      ],
      "name": "placeBet",
      "outputs": [],
      "stateMutability": "nonpayable",
      "type": "function"
    },
    {
      "inputs": [
        {
          "internalType": "uint256",
          "name": "",
          "type": "uint256"
        },
        {
          "internalType": "uint256",
          "name": "",
          "type": "uint256"
        }
      ],
      "name": "poolBets",
      "outputs": [
        {
          "internalType": "uint256",
          "name": "",
          "type": "uint256"
        }
      ],
      "stateMutability": "view",
      "type": "function"
    },
    {
      "inputs": [
        {
          "internalType": "uint256",
          "name": "",
          "type": "uint256"
        },
        {
          "internalType": "uint256",
          "name": "",
          "type": "uint256"
        }
      ],
      "name": "poolCommission",
      "outputs": [
        {
          "internalType": "uint256",
          "name": "amount",
          "type": "uint256"
        },
        {
          "internalType": "uint256",
          "name": "totalAmount",
          "type": "uint256"
        },
        {
          "internalType": "address",
          "name": "player",
          "type": "address"
        }
      ],
      "stateMutability": "view",
      "type": "function"
    },
    {
      "inputs": [],
      "name": "proxiableUUID",
      "outputs": [
        {
          "internalType": "bytes32",
          "name": "",
          "type": "bytes32"
        }
      ],
      "stateMutability": "view",
      "type": "function"
    },
    {
      "inputs": [
        {
          "internalType": "bytes32",
          "name": "_ethSignedMessageHash",
          "type": "bytes32"
        },
        {
          "internalType": "bytes",
          "name": "_signature",
          "type": "bytes"
        }
      ],
      "name": "recoverSigner",
      "outputs": [
        {
          "internalType": "address",
          "name": "",
          "type": "address"
        }
      ],
      "stateMutability": "pure",
      "type": "function"
    },
    {
      "inputs": [
        {
          "internalType": "bytes32",
          "name": "role",
          "type": "bytes32"
        },
        {
          "internalType": "address",
          "name": "account",
          "type": "address"
        }
      ],
      "name": "renounceRole",
      "outputs": [],
      "stateMutability": "nonpayable",
      "type": "function"
    },
    {
      "inputs": [
        {
          "internalType": "bytes32",
          "name": "role",
          "type": "bytes32"
        },
        {
          "internalType": "address",
          "name": "account",
          "type": "address"
        }
      ],
      "name": "revokeRole",
      "outputs": [],
      "stateMutability": "nonpayable",
      "type": "function"
    },
    {
      "inputs": [],
      "name": "signer",
      "outputs": [
        {
          "internalType": "address",
          "name": "",
          "type": "address"
        }
      ],
      "stateMutability": "view",
      "type": "function"
    },
    {
      "inputs": [
        {
          "internalType": "bytes4",
          "name": "interfaceId",
          "type": "bytes4"
        }
      ],
      "name": "supportsInterface",
      "outputs": [
        {
          "internalType": "bool",
          "name": "",
          "type": "bool"
        }
      ],
      "stateMutability": "view",
      "type": "function"
    },
    {
      "inputs": [
        {
          "internalType": "address",
          "name": "who_",
          "type": "address"
        },
        {
          "internalType": "uint256",
          "name": "poolId_",
          "type": "uint256"
        }
      ],
      "name": "totalCommissions",
      "outputs": [
        {
          "internalType": "uint256",
          "name": "",
          "type": "uint256"
        }
      ],
      "stateMutability": "view",
      "type": "function"
    },
    {
      "inputs": [
        {
          "internalType": "address",
          "name": "who_",
          "type": "address"
        },
        {
          "internalType": "uint256",
          "name": "poolId_",
          "type": "uint256"
        }
      ],
      "name": "totalPayouts",
      "outputs": [
        {
          "internalType": "uint256",
          "name": "",
          "type": "uint256"
        }
      ],
      "stateMutability": "view",
      "type": "function"
    },
    {
      "inputs": [
        {
          "internalType": "address",
          "name": "who_",
          "type": "address"
        },
        {
          "internalType": "uint256",
          "name": "poolId_",
          "type": "uint256"
        }
      ],
      "name": "totalRefunds",
      "outputs": [
        {
          "internalType": "uint256",
          "name": "",
          "type": "uint256"
        }
      ],
      "stateMutability": "view",
      "type": "function"
    },
    {
      "inputs": [
        {
          "internalType": "uint256",
          "name": "poolId_",
          "type": "uint256"
        },
        {
          "internalType": "uint256",
          "name": "amount_",
          "type": "uint256"
        }
      ],
      "name": "transferCommissionToVault",
      "outputs": [],
      "stateMutability": "nonpayable",
      "type": "function"
    },
    {
      "inputs": [
        {
          "internalType": "uint256",
          "name": "poolId_",
          "type": "uint256"
        },
        {
          "internalType": "uint256",
          "name": "amount_",
          "type": "uint256"
        }
      ],
      "name": "transferPayoutToVault",
      "outputs": [],
      "stateMutability": "nonpayable",
      "type": "function"
    },
    {
      "inputs": [
        {
          "internalType": "address",
          "name": "newImplementation",
          "type": "address"
        }
      ],
      "name": "upgradeTo",
      "outputs": [],
      "stateMutability": "nonpayable",
      "type": "function"
    },
    {
      "inputs": [
        {
          "internalType": "address",
          "name": "newImplementation",
          "type": "address"
        },
        {
          "internalType": "bytes",
          "name": "data",
          "type": "bytes"
        }
      ],
      "name": "upgradeToAndCall",
      "outputs": [],
      "stateMutability": "payable",
      "type": "function"
    },
    {
      "inputs": [
        {
          "internalType": "uint256",
          "name": "",
          "type": "uint256"
        },
        {
          "internalType": "address",
          "name": "",
          "type": "address"
        },
        {
          "internalType": "uint256",
          "name": "",
          "type": "uint256"
        }
      ],
      "name": "userBets",
      "outputs": [
        {
          "internalType": "uint256",
          "name": "",
          "type": "uint256"
        }
      ],
      "stateMutability": "view",
      "type": "function"
    },
    {
      "inputs": [],
      "name": "vault",
      "outputs": [
        {
          "internalType": "address",
          "name": "",
          "type": "address"
        }
      ],
      "stateMutability": "view",
      "type": "function"
    },
    {
      "inputs": [
        {
          "internalType": "uint256",
          "name": "amount_",
          "type": "uint256"
        }
      ],
      "name": "viewCommisionPaid",
      "outputs": [
        {
          "internalType": "uint256",
          "name": "",
          "type": "uint256"
        }
      ],
      "stateMutability": "pure",
      "type": "function"
    },
    {
      "inputs": [
        {
          "internalType": "uint256",
          "name": "poolId_",
          "type": "uint256"
        }
      ],
      "name": "viewPoolDistribution",
      "outputs": [
        {
          "internalType": "uint256[]",
          "name": "_betAmounts",
          "type": "uint256[]"
        }
      ],
      "stateMutability": "view",
      "type": "function"
    },
    {
      "inputs": [
        {
          "internalType": "uint256",
          "name": "poolId_",
          "type": "uint256"
        },
        {
          "internalType": "uint256",
          "name": "teamId_",
          "type": "uint256"
        },
        {
          "internalType": "uint256",
          "name": "amount_",
          "type": "uint256"
        }
      ],
      "name": "viewPriceImpact",
      "outputs": [
        {
          "internalType": "uint256",
          "name": "",
          "type": "uint256"
        }
      ],
      "stateMutability": "view",
      "type": "function"
    }
  ],
  "bytecode": "0x60a06040523060805234801561001457600080fd5b506080516155816200004d6000396000818161107e01528181611103015281816112b50152818161133a015261142001526155816000f3fe6080604052600436106103345760003560e01c80638eca493a116101b0578063d326f1fd116100ec578063e768896c11610095578063f440be041161006f578063f440be0414610a6f578063faab83b014610ae1578063fbfa77cf14610b01578063ff264b1614610b1657600080fd5b8063e768896c14610a0d578063eda9933614610a3a578063ef4cadc514610a5a57600080fd5b8063d547741f116100c6578063d547741f146109a6578063d6d8dcb6146109c6578063dd4813e5146109e657600080fd5b8063d326f1fd14610921578063d3aeb7cb14610959578063d3ffe67a1461099157600080fd5b8063a8f6c91311610159578063c4d66de811610133578063c4d66de81461084c578063c64acc1e1461086c578063cd811c251461088c578063cf4969fb146108ac57600080fd5b8063a8f6c913146107db578063b2ad04d2146107f0578063bb1565651461081157600080fd5b80639bd0e9e91161018a5780639bd0e9e914610768578063a217fddf146107a6578063a84c9a56146107bb57600080fd5b80638eca493a146106e257806391d148541461070257806397aba7f91461074857600080fd5b80633d5e1ab11161027f5780635b7baf64116102285780636540742f116102025780636540742f146105d05780636579e09a1461066e5780636dbcb9f01461068e57806375b238fc146106ae57600080fd5b80635b7baf641461060e5780635cbf47d21461062e57806361c4cc151461064e57600080fd5b8063489a298d11610259578063489a298d146105d05780634f1ef286146105e657806352d1902d146105f957600080fd5b80633d5e1ab11461056357806340fcd5631461058357806343bb9ddf146105b057600080fd5b80632a63636b116102e1578063349d2cb3116102bb578063349d2cb3146104eb57806336568abe146105235780633659cfe61461054357600080fd5b80632a63636b1461047c5780632f2ff15d1461049e57806330fcabdb146104be57600080fd5b8063238ac93311610312578063238ac933146103f1578063248a9ca31461041e578063296c12cf1461045c57600080fd5b806301ffc9a714610339578063068bcd8d1461036e57806322af00fa1461039b575b600080fd5b34801561034557600080fd5b506103596103543660046148b5565b610b36565b60405190151581526020015b60405180910390f35b34801561037a57600080fd5b5061038e6103893660046148df565b610b9f565b60405161036591906149b5565b3480156103a757600080fd5b506103bb6103b63660046148df565b610c41565b6040805196875260208701959095529385019290925260608401526001600160a01b0316608083015260a082015260c001610365565b3480156103fd57600080fd5b50610406610c93565b6040516001600160a01b039091168152602001610365565b34801561042a57600080fd5b5061044e6104393660046148df565b600090815260c9602052604090206001015490565b604051908152602001610365565b34801561046857600080fd5b5061044e610477366004614aca565b610d2f565b34801561048857600080fd5b5061049c610497366004614af6565b610d42565b005b3480156104aa57600080fd5b5061049c6104b9366004614b18565b610e8a565b3480156104ca57600080fd5b506104de6104d93660046148df565b610eb4565b6040516103659190614b48565b3480156104f757600080fd5b5061044e610506366004614aca565b60fe60209081526000928352604080842090915290825290205481565b34801561052f57600080fd5b5061049c61053e366004614b18565b610fe7565b34801561054f57600080fd5b5061049c61055e366004614b5b565b611073565b34801561056f57600080fd5b5061044e61057e3660046148df565b6111ef565b34801561058f57600080fd5b506105a361059e3660046148df565b611204565b6040516103659190614bc5565b3480156105bc57600080fd5b5061044e6105cb3660046148df565b61129f565b3480156105dc57600080fd5b5061044e61271081565b61049c6105f4366004614d16565b6112aa565b34801561060557600080fd5b5061044e611413565b34801561061a57600080fd5b5061049c6106293660046148df565b6114d8565b34801561063a57600080fd5b5061049c610649366004614d66565b6118b3565b34801561065a57600080fd5b5061044e610669366004614dc0565b611ca3565b34801561067a57600080fd5b5061044e610689366004614af6565b611ce1565b34801561069a57600080fd5b5061049c6106a9366004614af6565b611d13565b3480156106ba57600080fd5b5061044e7fa49807205ce4d355092ef5a8a18f56e8913cf4a201fbe287825b095693c2177581565b3480156106ee57600080fd5b5061049c6106fd3660046148df565b611db2565b34801561070e57600080fd5b5061035961071d366004614b18565b600091825260c9602090815260408084206001600160a01b0393909316845291905290205460ff1690565b34801561075457600080fd5b50610406610763366004614df8565b61214a565b34801561077457600080fd5b50610788610783366004614e29565b6121c9565b60408051938452602084019290925260ff1690820152606001610365565b3480156107b257600080fd5b5061044e600081565b3480156107c757600080fd5b5061044e6107d6366004614aca565b61223d565b3480156107e757600080fd5b50610406612249565b3480156107fc57600080fd5b5061010254610406906001600160a01b031681565b34801561081d57600080fd5b5061083161082c366004614aca565b6122a8565b60408051938452602084019290925290820152606001610365565b34801561085857600080fd5b5061049c610867366004614b5b565b61236d565b34801561087857600080fd5b5061044e610887366004614e5e565b6124eb565b34801561089857600080fd5b506104de6108a7366004614aca565b612500565b3480156108b857600080fd5b506108fd6108c7366004614af6565b6101006020908152600092835260408084209091529082529020805460018201546002909201549091906001600160a01b031683565b6040805193845260208401929092526001600160a01b031690820152606001610365565b34801561092d57600080fd5b5061044e61093c366004614aca565b60fd60209081526000928352604080842090915290825290205481565b34801561096557600080fd5b5061044e610974366004614aca565b60ff60209081526000928352604080842090915290825290205481565b34801561099d57600080fd5b5061044e612574565b3480156109b257600080fd5b5061049c6109c1366004614b18565b61260b565b3480156109d257600080fd5b5061044e6109e1366004614aca565b612630565b3480156109f257600080fd5b506109fb606481565b60405160ff9091168152602001610365565b348015610a1957600080fd5b50610a2d610a28366004614af6565b61263c565b6040516103659190614e8a565b348015610a4657600080fd5b5061049c610a55366004614e9d565b612708565b348015610a6657600080fd5b5061044e606481565b348015610a7b57600080fd5b5061044e610a8a366004614e9d565b6040516bffffffffffffffffffffffff19606086901b166020820152603481018490526054810183905260748101829052600090609401604051602081830303815290604052805190602001209050949350505050565b348015610aed57600080fd5b5061044e610afc366004614af6565b612d1b565b348015610b0d57600080fd5b50610406612d27565b348015610b2257600080fd5b5061049c610b31366004614aca565b612d86565b60006001600160e01b031982167f7965db0b000000000000000000000000000000000000000000000000000000001480610b9957507f01ffc9a7000000000000000000000000000000000000000000000000000000006001600160e01b03198316145b92915050565b610ba7614821565b610102546040517f068bcd8d000000000000000000000000000000000000000000000000000000008152600481018490526001600160a01b039091169063068bcd8d9060240160006040518083038186803b158015610c0557600080fd5b505afa158015610c19573d6000803e3d6000fd5b505050506040513d6000823e601f3d908101601f19168201604052610b999190810190614fcb565b60fb8181548110610c5157600080fd5b6000918252602090912060069091020180546001820154600283015460038401546004850154600590950154939550919390926001600160a01b039091169086565b61010254604080517f238ac93300000000000000000000000000000000000000000000000000000000815290516000926001600160a01b03169163238ac933916004808301926020929190829003018186803b158015610cf257600080fd5b505afa158015610d06573d6000803e3d6000fd5b505050506040513d601f19601f82011682018060405250810190610d2a919061510d565b905090565b6000610d3b83836131b8565b9392505050565b610102546001600160a01b03163314610d5a57600080fd5b6000610d6583610b9f565b90508060800151821115610de65760405162461bcd60e51b815260206004820152602760248201527f42657474696e673a205472616e73666572206578636565647320746f74616c2060448201527f7061796f7574730000000000000000000000000000000000000000000000000060648201526084015b60405180910390fd5b610dee612249565b6001600160a01b031663a9059cbb610e04612d27565b6040516001600160e01b031960e084901b1681526001600160a01b03909116600482015260248101859052604401602060405180830381600087803b158015610e4c57600080fd5b505af1158015610e60573d6000803e3d6000fd5b505050506040513d601f19601f82011682018060405250810190610e84919061512a565b50505050565b600082815260c96020526040902060010154610ea581613537565b610eaf8383613541565b505050565b60606000610ec183610b9f565b9050806020015167ffffffffffffffff811115610ee057610ee0614c27565b604051908082528060200260200182016040528015610f09578160200160208202803683370190505b50915060005b8160200151811015610fe0576101808201516040517fbd85b039000000000000000000000000000000000000000000000000000000008152600481018390526001600160a01b039091169063bd85b0399060240160206040518083038186803b158015610f7b57600080fd5b505afa158015610f8f573d6000803e3d6000fd5b505050506040513d601f19601f82011682018060405250810190610fb39190615145565b838281518110610fc557610fc561515e565b6020908102919091010152610fd98161518a565b9050610f0f565b5050919050565b6001600160a01b03811633146110655760405162461bcd60e51b815260206004820152602f60248201527f416363657373436f6e74726f6c3a2063616e206f6e6c792072656e6f756e636560448201527f20726f6c657320666f722073656c6600000000000000000000000000000000006064820152608401610ddd565b61106f82826135e3565b5050565b306001600160a01b037f00000000000000000000000000000000000000000000000000000000000000001614156111015760405162461bcd60e51b815260206004820152602c60248201527f46756e6374696f6e206d7573742062652063616c6c6564207468726f7567682060448201526b19195b1959d85d1958d85b1b60a21b6064820152608401610ddd565b7f00000000000000000000000000000000000000000000000000000000000000006001600160a01b031661115c7f360894a13ba1a3210667c828492db98dca3e2076cc3735a920a3ca505d382bbc546001600160a01b031690565b6001600160a01b0316146111c75760405162461bcd60e51b815260206004820152602c60248201527f46756e6374696f6e206d7573742062652063616c6c6564207468726f7567682060448201526b6163746976652070726f787960a01b6064820152608401610ddd565b6111d081613666565b604080516000808252602082019092526111ec91839190613690565b50565b60006111fa8261383f565b610b9990836151a5565b610102546040517f40fcd563000000000000000000000000000000000000000000000000000000008152600481018390526060916001600160a01b0316906340fcd5639060240160006040518083038186803b15801561126357600080fd5b505afa158015611277573d6000803e3d6000fd5b505050506040513d6000823e601f3d908101601f19168201604052610b99919081019061524c565b6000610b998261383f565b306001600160a01b037f00000000000000000000000000000000000000000000000000000000000000001614156113385760405162461bcd60e51b815260206004820152602c60248201527f46756e6374696f6e206d7573742062652063616c6c6564207468726f7567682060448201526b19195b1959d85d1958d85b1b60a21b6064820152608401610ddd565b7f00000000000000000000000000000000000000000000000000000000000000006001600160a01b03166113937f360894a13ba1a3210667c828492db98dca3e2076cc3735a920a3ca505d382bbc546001600160a01b031690565b6001600160a01b0316146113fe5760405162461bcd60e51b815260206004820152602c60248201527f46756e6374696f6e206d7573742062652063616c6c6564207468726f7567682060448201526b6163746976652070726f787960a01b6064820152608401610ddd565b61140782613666565b61106f82826001613690565b6000306001600160a01b037f000000000000000000000000000000000000000000000000000000000000000016146114b35760405162461bcd60e51b815260206004820152603860248201527f555550535570677261646561626c653a206d757374206e6f742062652063616c60448201527f6c6564207468726f7567682064656c656761746563616c6c00000000000000006064820152608401610ddd565b507f360894a13ba1a3210667c828492db98dca3e2076cc3735a920a3ca505d382bbc90565b806114e1612574565b811061152f5760405162461bcd60e51b815260206004820152601860248201527f42657474696e673a204964206973206e6f742076616c696400000000000000006044820152606401610ddd565b600061153a83610b9f565b9050336003826101000151600481111561155657611556614950565b146115c95760405162461bcd60e51b815260206004820152602760248201527f42657474696e673a20506f6f6c207374617475732073686f756c64206265204360448201527f616e63656c6564000000000000000000000000000000000000000000000000006064820152608401610ddd565b6001600160a01b038116600090815260fe602090815260408083208784529091529020541561163a5760405162461bcd60e51b815260206004820152601f60248201527f42657474696e673a20526566756e6420616c726561647920636c61696d6564006044820152606401610ddd565b6000611646828661386f565b9050600081116116985760405162461bcd60e51b815260206004820152601b60248201527f42657474696e673a204e6f20726566756e6420746f20636c61696d00000000006044820152606401610ddd565b6001600160a01b038216600090815260fe60209081526040808320888452825282208390558401516116cb908490613ab3565b905060006116d887613b50565b905060008561018001516001600160a01b0316634e1273f484846040518363ffffffff1660e01b815260040161170f9291906152f0565b60006040518083038186803b15801561172757600080fd5b505afa15801561173b573d6000803e3d6000fd5b505050506040513d6000823e601f3d908101601f191682016040526117639190810190615346565b9050611770858986613be7565b508561018001516001600160a01b0316636b20c4548684846040518463ffffffff1660e01b81526004016117a69392919061537b565b600060405180830381600087803b1580156117c057600080fd5b505af11580156117d4573d6000803e3d6000fd5b505050506117e0612249565b60405163a9059cbb60e01b81526001600160a01b03878116600483015260248201879052919091169063a9059cbb90604401602060405180830381600087803b15801561182c57600080fd5b505af1158015611840573d6000803e3d6000fd5b505050506040513d601f19601f82011682018060405250810190611864919061512a565b50846001600160a01b0316887ff3f402280ef0a7905e124aa621b65eaeb2725c343e8b36d398ed78c29daf285c866040516118a191815260200190565b60405180910390a35050505050505050565b836118bc612574565b811061190a5760405162461bcd60e51b815260206004820152601860248201527f42657474696e673a204964206973206e6f742076616c696400000000000000006044820152606401610ddd565b600061191586610b9f565b9050336002826101000151600481111561193157611931614950565b1461198d5760405162461bcd60e51b815260206004820152602660248201527f42657474696e673a20506f6f6c207374617475732073686f756c6420626520446044820152651958da58d95960d21b6064820152608401610ddd565b6001600160a01b038116600090815260ff602090815260408083208a845290915290205415611a0a5760405162461bcd60e51b815260206004820152602360248201527f42657474696e673a20436f6d6d697373696f6e20616c726561647920636c61696044820152621b595960ea1b6064820152608401610ddd565b60008611611a5a5760405162461bcd60e51b815260206004820152601f60248201527f42657474696e673a204e6f20636f6d6d697373696f6e20746f20636c61696d006044820152606401610ddd565b8160c00151861115611aba5760405162461bcd60e51b8152602060048201526024808201527f42657474696e673a205061796f7574206578636565647320746f74616c20616d6044820152631bdd5b9d60e21b6064820152608401610ddd565b611ac78188888888613c90565b43851115611b3d5760405162461bcd60e51b815260206004820152602160248201527f5369676e656420626c6f636b206e756d626572206d757374206265206f6c646560448201527f72000000000000000000000000000000000000000000000000000000000000006064820152608401610ddd565b43611b498660326153af565b1015611b975760405162461bcd60e51b815260206004820152601160248201527f5369676e617475726520657870697265640000000000000000000000000000006044820152606401610ddd565b6001600160a01b038116600090815260ff602090815260408083208a84529091529020869055611bc8818888613d9c565b50611bd1612249565b60405163a9059cbb60e01b81526001600160a01b03838116600483015260248201899052919091169063a9059cbb90604401602060405180830381600087803b158015611c1d57600080fd5b505af1158015611c31573d6000803e3d6000fd5b505050506040513d601f19601f82011682018060405250810190611c55919061512a565b50806001600160a01b0316877f129e7da771f6fd5560862f5cdf68575fe95e3fd6ab7910eb160667098eb0d2fe88604051611c9291815260200190565b60405180910390a350505050505050565b60fc6020528260005260406000206020528160005260406000208181548110611ccb57600080fd5b9060005260206000200160009250925050505481565b6101016020528160005260406000208181548110611cfe57600080fd5b90600052602060002001600091509150505481565b610102546001600160a01b03163314611d2b57600080fd5b6000611d3683610b9f565b90508060c00151821115610de65760405162461bcd60e51b815260206004820152602b60248201527f42657474696e673a205472616e73666572206578636565647320746f74616c2060448201527f636f6d6d697373696f6e730000000000000000000000000000000000000000006064820152608401610ddd565b80611dbb612574565b8110611e095760405162461bcd60e51b815260206004820152601860248201527f42657474696e673a204964206973206e6f742076616c696400000000000000006044820152606401610ddd565b6000611e1483610b9f565b90503360028261010001516004811115611e3057611e30614950565b14611e8c5760405162461bcd60e51b815260206004820152602660248201527f42657474696e673a20506f6f6c207374617475732073686f756c6420626520446044820152651958da58d95960d21b6064820152608401610ddd565b6001600160a01b038116600090815260ff6020908152604080832087845290915290205415611f095760405162461bcd60e51b815260206004820152602360248201527f42657474696e673a20436f6d6d697373696f6e20616c726561647920636c61696044820152621b595960ea1b6064820152608401610ddd565b816101a0015115611f825760405162461bcd60e51b815260206004820152602a60248201527f42657474696e673a20506f6f6c20636f6d6d697373696f6e206861732062656560448201527f6e2064697361626c6564000000000000000000000000000000000000000000006064820152608401610ddd565b6000611f8e82866131b8565b905060008111611fe05760405162461bcd60e51b815260206004820152601f60248201527f42657474696e673a204e6f20636f6d6d697373696f6e20746f20636c61696d006044820152606401610ddd565b8260c001518111156120405760405162461bcd60e51b8152602060048201526024808201527f42657474696e673a205061796f7574206578636565647320746f74616c20616d6044820152631bdd5b9d60e21b6064820152608401610ddd565b6001600160a01b038216600090815260ff602090815260408083208884529091529020819055612071828683613d9c565b5061207a612249565b60405163a9059cbb60e01b81526001600160a01b03848116600483015260248201849052919091169063a9059cbb90604401602060405180830381600087803b1580156120c657600080fd5b505af11580156120da573d6000803e3d6000fd5b505050506040513d601f19601f820116820180604052508101906120fe919061512a565b50816001600160a01b0316857f129e7da771f6fd5560862f5cdf68575fe95e3fd6ab7910eb160667098eb0d2fe8360405161213b91815260200190565b60405180910390a35050505050565b600080600080612159856121c9565b6040805160008152602081018083528b905260ff8316918101919091526060810184905260808101839052929550909350915060019060a0016020604051602081039080840390855afa1580156121b4573d6000803e3d6000fd5b5050604051601f190151979650505050505050565b6000806000835160411461221f5760405162461bcd60e51b815260206004820152601860248201527f696e76616c6964207369676e6174757265206c656e67746800000000000000006044820152606401610ddd565b50505060208101516040820151606090920151909260009190911a90565b6000610d3b838361386f565b61010254604080517fa8f6c91300000000000000000000000000000000000000000000000000000000815290516000926001600160a01b03169163a8f6c913916004808301926020929190829003018186803b158015610cf257600080fd5b6001600160a01b038216600090815260fd602090815260408083208484529091528120548190819081906122dc8787613df7565b6122e691906151a5565b6001600160a01b038716600090815260fe6020908152604080832089845290915281205491925090612318888861386f565b61232291906151a5565b6001600160a01b038816600090815260ff602090815260408083208a84529091528120549192509061235489896131b8565b61235e91906151a5565b92989197509195509350505050565b600054610100900460ff161580801561238d5750600054600160ff909116105b806123a75750303b1580156123a7575060005460ff166001145b6124195760405162461bcd60e51b815260206004820152602e60248201527f496e697469616c697a61626c653a20636f6e747261637420697320616c72656160448201527f647920696e697469616c697a65640000000000000000000000000000000000006064820152608401610ddd565b6000805460ff19166001179055801561243c576000805461ff0019166101001790555b612444613ffe565b610102805473ffffffffffffffffffffffffffffffffffffffff19166001600160a01b0384161790556124977fa49807205ce4d355092ef5a8a18f56e8913cf4a201fbe287825b095693c217753361407d565b6124a260003361407d565b801561106f576000805461ff0019169055604051600181527f7f26b83ff96e1f2b6a682f133852f6798a09c465da95921460cefb38474024989060200160405180910390a15050565b60006124f8848484614087565b949350505050565b600081815260fc602090815260408083206001600160a01b038616845282529182902080548351818402810184019094528084526060939283018282801561256757602002820191906000526020600020905b815481526020019060010190808311612553575b5050505050905092915050565b61010254604080517fd3ffe67a00000000000000000000000000000000000000000000000000000000815290516000926001600160a01b03169163d3ffe67a916004808301926020929190829003018186803b1580156125d357600080fd5b505afa1580156125e7573d6000803e3d6000fd5b505050506040513d601f19601f82011682018060405250810190610d2a9190615145565b600082815260c9602052604090206001015461262681613537565b610eaf83836135e3565b6000610d3b8383613df7565b6126676040805160808101825260008082526060602083015290918201908152602001600081525090565b610102546040517fe768896c00000000000000000000000000000000000000000000000000000000815260048101859052602481018490526001600160a01b039091169063e768896c9060440160006040518083038186803b1580156126cc57600080fd5b505afa1580156126e0573d6000803e3d6000fd5b505050506040513d6000823e601f3d908101601f19168201604052610d3b91908101906153c7565b82612711612574565b811061275f5760405162461bcd60e51b815260206004820152601860248201527f42657474696e673a204964206973206e6f742076616c696400000000000000006044820152606401610ddd565b600061276a85610b9f565b90506001816101000151600481111561278557612785614950565b146127f85760405162461bcd60e51b815260206004820152602660248201527f42657474696e673a20506f6f6c207374617475732073686f756c64206265205260448201527f756e6e696e6700000000000000000000000000000000000000000000000000006064820152608401610ddd565b6127108310156128705760405162461bcd60e51b815260206004820152602b60248201527f42657474696e673a20416d6f756e742073686f756c64206265206d6f7265207460448201527f68616e204d494e5f4245540000000000000000000000000000000000000000006064820152608401610ddd565b42816101400151116128ea5760405162461bcd60e51b815260206004820152602f60248201527f42657474696e673a2043616e6e6f7420706c616365206265742061667465722060448201527f706f6f6c2073746172742074696d6500000000000000000000000000000000006064820152608401610ddd565b60006128f6868661263c565b905060008160400151600181111561291057612910614950565b146129835760405162461bcd60e51b815260206004820152602660248201527f42657474696e673a205465616d207374617475732073686f756c64206265204360448201527f72656174656400000000000000000000000000000000000000000000000000006064820152608401610ddd565b60fb54606083015160009015612a135761299c8661383f565b60408051606081018252828152608087015160208083019182526001600160a01b038e811684860190815260008f815261010084528681208a825290935294909120925183559051600183015591516002909101805473ffffffffffffffffffffffffffffffffffffffff19169190921617905590505b60fb6040518060c001604052808481526020018a81526020018981526020018881526020018b6001600160a01b031681526020014281525090806001815401808255809150506001900390600052602060002090600602016000909190919091506000820151816000015560208201518160010155604082015181600201556060820151816003015560808201518160040160006101000a8154816001600160a01b0302191690836001600160a01b0316021790555060a08201518160050155505060fc600089815260200190815260200160002060008a6001600160a01b03166001600160a01b031681526020019081526020016000208290806001815401808255809150506001900390600052602060002001600090919091909150556101016000898152602001908152602001600020829080600181540180825580915050600190039060005260206000200160009091909190915055612b7a898989898561416a565b506000612b8782886153af565b9050612b91612249565b6040517f23b872dd000000000000000000000000000000000000000000000000000000008152336004820152306024820152604481018390526001600160a01b0391909116906323b872dd90606401602060405180830381600087803b158015612bfa57600080fd5b505af1158015612c0e573d6000803e3d6000fd5b505050506040513d601f19601f82011682018060405250810190612c32919061512a565b506101808501516040517f731133e90000000000000000000000000000000000000000000000000000000081526001600160a01b038c81166004830152602482018b9052604482018a905260806064830152600060848301529091169063731133e99060a401600060405180830381600087803b158015612cb257600080fd5b505af1158015612cc6573d6000803e3d6000fd5b50505050878a6001600160a01b03168a7f1b8a9031cb9351278d70a994f81536e9e08c91162e64f92b2fe4766fb7a891b48a604051612d0791815260200190565b60405180910390a450505050505050505050565b6000610d3b838361422a565b61010254604080517f2274346b00000000000000000000000000000000000000000000000000000000815290516000926001600160a01b031691632274346b916004808301926020929190829003018186803b158015610cf257600080fd5b80612d8f612574565b8110612ddd5760405162461bcd60e51b815260206004820152601860248201527f42657474696e673a204964206973206e6f742076616c696400000000000000006044820152606401610ddd565b6000612de883610b9f565b90506000612dfc8583610120015151613ab3565b905060008261018001516001600160a01b0316634e1273f4838561012001516040518363ffffffff1660e01b8152600401612e389291906152f0565b60006040518083038186803b158015612e5057600080fd5b505afa158015612e64573d6000803e3d6000fd5b505050506040513d6000823e601f3d908101601f19168201604052612e8c9190810190615346565b905060028361010001516004811115612ea757612ea7614950565b14612f1a5760405162461bcd60e51b815260206004820152602660248201527f42657474696e673a20506f6f6c207374617475732073686f756c64206265204460448201527f65636964656400000000000000000000000000000000000000000000000000006064820152608401610ddd565b826101c0015115612f935760405162461bcd60e51b815260206004820152602760248201527f42657474696e673a20506f6f6c207061796d656e7420686173206265656e206460448201527f697361626c6564000000000000000000000000000000000000000000000000006064820152608401610ddd565b6000612f9f8787613df7565b905060008111612ff15760405162461bcd60e51b815260206004820152601b60248201527f42657474696e673a204e6f207061796f757420746f20636c61696d00000000006044820152606401610ddd565b83608001518111156130515760405162461bcd60e51b8152602060048201526024808201527f42657474696e673a205061796f7574206578636565647320746f74616c20616d6044820152631bdd5b9d60e21b6064820152608401610ddd565b6001600160a01b038716600090815260fd6020908152604080832089845290915290208190556130828787836142ff565b508361018001516001600160a01b0316636b20c45433866101200151856040518463ffffffff1660e01b81526004016130bd9392919061537b565b600060405180830381600087803b1580156130d757600080fd5b505af11580156130eb573d6000803e3d6000fd5b505050506130f7612249565b60405163a9059cbb60e01b81526001600160a01b03898116600483015260248201849052919091169063a9059cbb90604401602060405180830381600087803b15801561314357600080fd5b505af1158015613157573d6000803e3d6000fd5b505050506040513d601f19601f8201168201806040525081019061317b919061512a565b50866001600160a01b0316867f5380cf6fe903b40c6d5a9e0dfbca2f3a423f0a21520b4d5947ed5169bdba946d83604051611c9291815260200190565b6000806131c483610b9f565b9050600381610100015160048111156131df576131df614950565b14156131ef576000915050610b99565b600083815260fc602090815260408083206001600160a01b038816845282528083208054825181850281018501909352808352919290919083018282801561325657602002820191906000526020600020905b815481526020019060010190808311613242575b5050505050905080516000141561327257600092505050610b99565b60008060005b600087815261010160205260409020548110156132f857836000815181106132a2576132a261515e565b6020026020010151610101600089815260200190815260200160002082815481106132cf576132cf61515e565b906000526020600020015414156132e8578091506132f8565b6132f18161518a565b9050613278565b50600060fb846000815181106133105761331061515e565b6020026020010151815481106133285761332861515e565b600091825260208083206040805160c0810182526006909402909101805484526001808201549385019390935260028101549184019190915260038101546060840181905260048201546001600160a01b0316608085015260059091015460a084015291935090919061339c9085906153af565b90505b6000898152610101602052604090205481101561351e576000898152610101602052604081208054839081106133d7576133d761515e565b60009182526020808320909101548c835261010082526040808420828552835292839020835160608101855281548152600182015493810193909352600201546001600160a01b031692820183905292509061343457505061350e565b600060fb83815481106134495761344961515e565b60009182526020918290206040805160c0810182526006909302909101805483526001810154838501526002810154918301919091526003810154606083015260048101546001600160a01b031660808301526005015460a0820152908301518351919250906134ba6064886153fc565b6134c491906153fc565b6134ce919061541b565b6134d890896153af565b97508c6001600160a01b031681608001516001600160a01b0316141561350a57606081015161350790866153af565b94505b5050505b6135178161518a565b905061339f565b5061352a60648561541b565b9998505050505050505050565b6111ec813361435a565b600082815260c9602090815260408083206001600160a01b038516845290915290205460ff1661106f57600082815260c9602090815260408083206001600160a01b03851684529091529020805460ff1916600117905561359f3390565b6001600160a01b0316816001600160a01b0316837f2f8788117e7eff1d82e926ec794901d17c78024a50270940304540a733656f0d60405160405180910390a45050565b600082815260c9602090815260408083206001600160a01b038516845290915290205460ff161561106f57600082815260c9602090815260408083206001600160a01b0385168085529252808320805460ff1916905551339285917ff6391f5c32d9c69d2a47ea670b442974b53935d1edc7fd64eb21e047a839171b9190a45050565b7fa49807205ce4d355092ef5a8a18f56e8913cf4a201fbe287825b095693c2177561106f81613537565b7f4910fdfa16fed3260ed0e7147f7cc6da11a60208b5b9406d12a635614ffd91435460ff16156136c357610eaf836143da565b826001600160a01b03166352d1902d6040518163ffffffff1660e01b815260040160206040518083038186803b1580156136fc57600080fd5b505afa92505050801561372c575060408051601f3d908101601f1916820190925261372991810190615145565b60015b61379e5760405162461bcd60e51b815260206004820152602e60248201527f45524331393637557067726164653a206e657720696d706c656d656e7461746960448201527f6f6e206973206e6f7420555550530000000000000000000000000000000000006064820152608401610ddd565b7f360894a13ba1a3210667c828492db98dca3e2076cc3735a920a3ca505d382bbc81146138335760405162461bcd60e51b815260206004820152602960248201527f45524331393637557067726164653a20756e737570706f727465642070726f7860448201527f6961626c655555494400000000000000000000000000000000000000000000006064820152608401610ddd565b50610eaf8383836144a5565b600060646127108161385181866153fc565b61385b91906153fc565b613865919061541b565b610b99919061541b565b60008061387b83610b9f565b90506003816101000151600481111561389657613896614950565b146138a5576000915050610b99565b60006138b5858360200151613ab3565b905060006138c285613b50565b905060008361018001516001600160a01b0316634e1273f484846040518363ffffffff1660e01b81526004016138f99291906152f0565b60006040518083038186803b15801561391157600080fd5b505afa158015613925573d6000803e3d6000fd5b505050506040513d6000823e601f3d908101601f1916820160405261394d9190810190615346565b600087815260fc602090815260408083206001600160a01b038c1684528252808320805482518185028101850190935280835294955092939092918301828280156139b757602002820191906000526020600020905b8154815260200190600101908083116139a3575b505050505090506000805b83518160ff161015613a0857838160ff16815181106139e3576139e361515e565b6020026020010151826139f691906153af565b9150613a018161543d565b90506139c2565b5060005b8251811015613aa65760008981526101006020526040812084518290869085908110613a3a57613a3a61515e565b6020908102919091018101518252818101929092526040908101600020815160608101835281548082526001830154948201949094526002909101546001600160a01b0316918101919091529150613a9290846153af565b92505080613a9f9061518a565b9050613a0c565b5098975050505050505050565b606060008267ffffffffffffffff811115613ad057613ad0614c27565b604051908082528060200260200182016040528015613af9578160200160208202803683370190505b50905060005b838160ff161015613b485784828260ff1681518110613b2057613b2061515e565b6001600160a01b0390921660209283029190910190910152613b418161543d565b9050613aff565b509392505050565b60606000613b5d83610b9f565b90506000816020015167ffffffffffffffff811115613b7e57613b7e614c27565b604051908082528060200260200182016040528015613ba7578160200160208202803683370190505b50905060005b8260200151811015613b485780828281518110613bcc57613bcc61515e565b6020908102919091010152613be08161518a565b9050613bad565b610102546040517fb1684e590000000000000000000000000000000000000000000000000000000081526001600160a01b0385811660048301526024820185905260448201849052600092169063b1684e59906064015b602060405180830381600087803b158015613c5857600080fd5b505af1158015613c6c573d6000803e3d6000fd5b505050506040513d601f19601f820116820180604052508101906124f8919061512a565b604080516bffffffffffffffffffffffff19606088901b1660208083019190915260348201879052605482018690526074808301869052835180840390910181526094830184528051908201207f19457468657265756d205369676e6564204d6573736167653a0a33320000000060b484015260d08084018290528451808503909101815260f09093019093528151910120613d2a610c93565b6001600160a01b0316613d3d828561214a565b6001600160a01b031614613d935760405162461bcd60e51b815260206004820152601160248201527f496e76616c6964207369676e61747572650000000000000000000000000000006044820152606401610ddd565b50505050505050565b610102546040517f2b263ab70000000000000000000000000000000000000000000000000000000081526001600160a01b03858116600483015260248201859052604482018490526000921690632b263ab790606401613c3e565b600080613e0383610b9f565b905060028161010001516004811115613e1e57613e1e614950565b14613e2d576000915050610b99565b6000805b82610120015151811015613e8f576000613e69868561012001518481518110613e5c57613e5c61515e565b602002602001015161263c565b9050806060015183613e7b91906153af565b92505080613e889061518a565b9050613e31565b50808260800151613ea091906151a5565b905060008261012001515182613eb6919061541b565b90506000805b84610120015151811015613ff3576000613ee7888761012001518481518110613e5c57613e5c61515e565b606081015190915080613efb575050613fe3565b60008761018001516001600160a01b031662fdd58e8c8a61012001518781518110613f2857613f2861515e565b60200260200101516040518363ffffffff1660e01b8152600401613f619291906001600160a01b03929092168252602082015260400190565b60206040518083038186803b158015613f7957600080fd5b505afa158015613f8d573d6000803e3d6000fd5b505050506040513d601f19601f82011682018060405250810190613fb19190615145565b90508082613fbf82896153fc565b613fc9919061541b565b613fd390876153af565b613fdd91906153af565b94505050505b613fec8161518a565b9050613ebc565b509695505050505050565b600054610100900460ff1661407b5760405162461bcd60e51b815260206004820152602b60248201527f496e697469616c697a61626c653a20636f6e7472616374206973206e6f74206960448201527f6e697469616c697a696e670000000000000000000000000000000000000000006064820152608401610ddd565b565b61106f8282613541565b60008061409385610b9f565b905060008161018001516001600160a01b031663bd85b039866040518263ffffffff1660e01b81526004016140ca91815260200190565b60206040518083038186803b1580156140e257600080fd5b505afa1580156140f6573d6000803e3d6000fd5b505050506040513d601f19601f8201168201806040525081019061411a9190615145565b9050600061412885836153af565b91508190508060648287866080015161414191906153af565b61414b91906151a5565b61415591906153fc565b61415f919061541b565b979650505050505050565b610102546040517fd3e378390000000000000000000000000000000000000000000000000000000081526001600160a01b03878116600483015260248201879052604482018690526064820185905260848201849052600092169063d3e378399060a401602060405180830381600087803b1580156141e857600080fd5b505af11580156141fc573d6000803e3d6000fd5b505050506040513d601f19601f82011682018060405250810190614220919061512a565b9695505050505050565b60008061423684610b9f565b905060008161018001516001600160a01b031663bd85b039856040518263ffffffff1660e01b815260040161426d91815260200190565b60206040518083038186803b15801561428557600080fd5b505afa158015614299573d6000803e3d6000fd5b505050506040513d601f19601f820116820180604052508101906142bd9190615145565b9050806142cf57600092505050610b99565b8060648284608001516142e291906151a5565b6142ec91906153fc565b6142f6919061541b565b95945050505050565b610102546040517f970e982a0000000000000000000000000000000000000000000000000000000081526001600160a01b0385811660048301526024820185905260448201849052600092169063970e982a90606401613c3e565b600082815260c9602090815260408083206001600160a01b038516845290915290205460ff1661106f57614398816001600160a01b031660146144ca565b6143a38360206144ca565b6040516020016143b492919061545d565b60408051601f198184030181529082905262461bcd60e51b8252610ddd916004016154de565b6001600160a01b0381163b6144575760405162461bcd60e51b815260206004820152602d60248201527f455243313936373a206e657720696d706c656d656e746174696f6e206973206e60448201527f6f74206120636f6e7472616374000000000000000000000000000000000000006064820152608401610ddd565b7f360894a13ba1a3210667c828492db98dca3e2076cc3735a920a3ca505d382bbc805473ffffffffffffffffffffffffffffffffffffffff19166001600160a01b0392909216919091179055565b6144ae836146ab565b6000825111806144bb5750805b15610eaf57610e8483836146eb565b606060006144d98360026153fc565b6144e49060026153af565b67ffffffffffffffff8111156144fc576144fc614c27565b6040519080825280601f01601f191660200182016040528015614526576020820181803683370190505b5090507f30000000000000000000000000000000000000000000000000000000000000008160008151811061455d5761455d61515e565b60200101906001600160f81b031916908160001a9053507f7800000000000000000000000000000000000000000000000000000000000000816001815181106145a8576145a861515e565b60200101906001600160f81b031916908160001a90535060006145cc8460026153fc565b6145d79060016153af565b90505b600181111561465c577f303132333435363738396162636465660000000000000000000000000000000085600f16601081106146185761461861515e565b1a60f81b82828151811061462e5761462e61515e565b60200101906001600160f81b031916908160001a90535060049490941c93614655816154f1565b90506145da565b508315610d3b5760405162461bcd60e51b815260206004820181905260248201527f537472696e67733a20686578206c656e67746820696e73756666696369656e746044820152606401610ddd565b6146b4816143da565b6040516001600160a01b038216907fbc7cd75a20ee27fd9adebab32041f755214dbc6bffa90cc0225b39da2e5c2d3b90600090a250565b60606001600160a01b0383163b61476a5760405162461bcd60e51b815260206004820152602660248201527f416464726573733a2064656c65676174652063616c6c20746f206e6f6e2d636f60448201527f6e747261637400000000000000000000000000000000000000000000000000006064820152608401610ddd565b600080846001600160a01b0316846040516147859190615508565b600060405180830381855af49150503d80600081146147c0576040519150601f19603f3d011682016040523d82523d6000602084013e6147c5565b606091505b50915091506142f6828260405180606001604052806027815260200161552560279139606083156147f7575081610d3b565b8251156148075782518084602001fd5b8160405162461bcd60e51b8152600401610ddd91906154de565b604051806101e0016040528060008152602001600081526020016060815260200160008152602001600081526020016000815260200160008152602001600081526020016000600481111561487857614878614950565b815260200160608152602001600081526020016000815260200160006001600160a01b031681526020016000151581526020016000151581525090565b6000602082840312156148c757600080fd5b81356001600160e01b031981168114610d3b57600080fd5b6000602082840312156148f157600080fd5b5035919050565b60005b838110156149135781810151838201526020016148fb565b83811115610e845750506000910152565b6000815180845261493c8160208601602086016148f8565b601f01601f19169290920160200192915050565b634e487b7160e01b600052602160045260246000fd5b6005811061497657614976614950565b9052565b600081518084526020808501945080840160005b838110156149aa5781518752958201959082019060010161498e565b509495945050505050565b602081528151602082015260208201516040820152600060408301516101e08060608501526149e8610200850183614924565b915060608501516080850152608085015160a085015260a085015160c085015260c085015160e085015260e0850151610100818187015280870151915050610120614a3581870183614966565b80870151915050610140601f198685030181870152614a54848361497a565b90870151610160878101919091528701516101808088019190915287015190935090506101a0614a8e818701836001600160a01b03169052565b86015190506101c0614aa38682018315159052565b90950151151593019290925250919050565b6001600160a01b03811681146111ec57600080fd5b60008060408385031215614add57600080fd5b8235614ae881614ab5565b946020939093013593505050565b60008060408385031215614b0957600080fd5b50508035926020909101359150565b60008060408385031215614b2b57600080fd5b823591506020830135614b3d81614ab5565b809150509250929050565b602081526000610d3b602083018461497a565b600060208284031215614b6d57600080fd5b8135610d3b81614ab5565b805182526000602082015160806020850152614b976080850182614924565b9050604083015160028110614bae57614bae614950565b604085015260609283015192909301919091525090565b6000602080830181845280855180835260408601915060408160051b870101925083870160005b82811015614c1a57603f19888603018452614c08858351614b78565b94509285019290850190600101614bec565b5092979650505050505050565b634e487b7160e01b600052604160045260246000fd5b6040516101e0810167ffffffffffffffff81118282101715614c6157614c61614c27565b60405290565b604051601f8201601f1916810167ffffffffffffffff81118282101715614c9057614c90614c27565b604052919050565b600067ffffffffffffffff821115614cb257614cb2614c27565b50601f01601f191660200190565b600082601f830112614cd157600080fd5b8135614ce4614cdf82614c98565b614c67565b818152846020838601011115614cf957600080fd5b816020850160208301376000918101602001919091529392505050565b60008060408385031215614d2957600080fd5b8235614d3481614ab5565b9150602083013567ffffffffffffffff811115614d5057600080fd5b614d5c85828601614cc0565b9150509250929050565b60008060008060808587031215614d7c57600080fd5b843593506020850135925060408501359150606085013567ffffffffffffffff811115614da857600080fd5b614db487828801614cc0565b91505092959194509250565b600080600060608486031215614dd557600080fd5b833592506020840135614de781614ab5565b929592945050506040919091013590565b60008060408385031215614e0b57600080fd5b82359150602083013567ffffffffffffffff811115614d5057600080fd5b600060208284031215614e3b57600080fd5b813567ffffffffffffffff811115614e5257600080fd5b6124f884828501614cc0565b600080600060608486031215614e7357600080fd5b505081359360208301359350604090920135919050565b602081526000610d3b6020830184614b78565b60008060008060808587031215614eb357600080fd5b8435614ebe81614ab5565b966020860135965060408601359560600135945092505050565b600082601f830112614ee957600080fd5b8151614ef7614cdf82614c98565b818152846020838601011115614f0c57600080fd5b6124f88260208301602087016148f8565b805160058110614f2c57600080fd5b919050565b600067ffffffffffffffff821115614f4b57614f4b614c27565b5060051b60200190565b600082601f830112614f6657600080fd5b81516020614f76614cdf83614f31565b82815260059290921b84018101918181019086841115614f9557600080fd5b8286015b84811015613ff35780518352918301918301614f99565b8051614f2c81614ab5565b80518015158114614f2c57600080fd5b600060208284031215614fdd57600080fd5b815167ffffffffffffffff80821115614ff557600080fd5b908301906101e0828603121561500a57600080fd5b615012614c3d565b825181526020830151602082015260408301518281111561503257600080fd5b61503e87828601614ed8565b604083015250606083015160608201526080830151608082015260a083015160a082015260c083015160c082015260e083015160e0820152610100615084818501614f1d565b90820152610120838101518381111561509c57600080fd5b6150a888828701614f55565b91830191909152506101408381015190820152610160808401519082015261018091506150d6828401614fb0565b828201526101a091506150ea828401614fbb565b828201526101c091506150fe828401614fbb565b91810191909152949350505050565b60006020828403121561511f57600080fd5b8151610d3b81614ab5565b60006020828403121561513c57600080fd5b610d3b82614fbb565b60006020828403121561515757600080fd5b5051919050565b634e487b7160e01b600052603260045260246000fd5b634e487b7160e01b600052601160045260246000fd5b600060001982141561519e5761519e615174565b5060010190565b6000828210156151b7576151b7615174565b500390565b6000608082840312156151ce57600080fd5b6040516080810167ffffffffffffffff82821081831117156151f2576151f2614c27565b8160405282935084518352602085015191508082111561521157600080fd5b5061521e85828601614ed8565b60208301525060408301516002811061523657600080fd5b6040820152606092830151920191909152919050565b6000602080838503121561525f57600080fd5b825167ffffffffffffffff8082111561527757600080fd5b818501915085601f83011261528b57600080fd5b8151615299614cdf82614f31565b81815260059190911b830184019084810190888311156152b857600080fd5b8585015b83811015613aa6578051858111156152d45760008081fd5b6152e28b89838a01016151bc565b8452509186019186016152bc565b604080825283519082018190526000906020906060840190828701845b828110156153325781516001600160a01b03168452928401929084019060010161530d565b50505083810382850152614220818661497a565b60006020828403121561535857600080fd5b815167ffffffffffffffff81111561536f57600080fd5b6124f884828501614f55565b6001600160a01b038416815260606020820152600061539d606083018561497a565b8281036040840152614220818561497a565b600082198211156153c2576153c2615174565b500190565b6000602082840312156153d957600080fd5b815167ffffffffffffffff8111156153f057600080fd5b6124f8848285016151bc565b600081600019048311821515161561541657615416615174565b500290565b60008261543857634e487b7160e01b600052601260045260246000fd5b500490565b600060ff821660ff81141561545457615454615174565b60010192915050565b7f416363657373436f6e74726f6c3a206163636f756e74200000000000000000008152600083516154958160178501602088016148f8565b7f206973206d697373696e6720726f6c652000000000000000000000000000000060179184019182015283516154d28160288401602088016148f8565b01602801949350505050565b602081526000610d3b6020830184614924565b60008161550057615500615174565b506000190190565b6000825161551a8184602087016148f8565b919091019291505056fe416464726573733a206c6f772d6c6576656c2064656c65676174652063616c6c206661696c6564a2646970667358221220d6ff346451bdc66e1e81091a69faf9b0d099ae00e456399f35ad8a5b761e763e64736f6c63430008090033",
  "linkReferences": {},
  "deployedLinkReferences": {}
}