{
  "_format": "hh-sol-artifact-1",
  "contractName": "BettingAdmin",
  "sourceName": "contracts/admin/BettingAdmin.sol",
  "abi": [
    {
      "anonymous": false,
      "inputs": [
        {
          "indexed": false,
          "internalType": "address",
          "name": "previousAdmin",
          "type": "address"
        },
        {
          "indexed": false,
          "internalType": "address",
          "name": "newAdmin",
          "type": "address"
        }
      ],
      "name": "AdminChanged",
      "type": "event"
    },
    {
      "anonymous": false,
      "inputs": [
        {
          "indexed": true,
          "internalType": "address",
          "name": "beacon",
          "type": "address"
        }
      ],
      "name": "BeaconUpgraded",
      "type": "event"
    },
    {
      "anonymous": false,
      "inputs": [
        {
          "indexed": true,
          "internalType": "uint256",
          "name": "poolId",
          "type": "uint256"
        },
        {
          "indexed": false,
          "internalType": "uint256",
          "name": "amount",
          "type": "uint256"
        }
      ],
      "name": "CommissionTransferredToVault",
      "type": "event"
    },
    {
      "anonymous": false,
      "inputs": [
        {
          "indexed": false,
          "internalType": "uint8",
          "name": "version",
          "type": "uint8"
        }
      ],
      "name": "Initialized",
      "type": "event"
    },
    {
      "anonymous": false,
      "inputs": [
        {
          "indexed": true,
          "internalType": "uint256",
          "name": "poolId",
          "type": "uint256"
        },
        {
          "indexed": false,
          "internalType": "uint256",
          "name": "amount",
          "type": "uint256"
        }
      ],
      "name": "PayoutTransferredToVault",
      "type": "event"
    },
    {
      "anonymous": false,
      "inputs": [
        {
          "indexed": true,
          "internalType": "uint256",
          "name": "poolId",
          "type": "uint256"
        }
      ],
      "name": "PoolCanceled",
      "type": "event"
    },
    {
      "anonymous": false,
      "inputs": [
        {
          "indexed": true,
          "internalType": "uint256",
          "name": "poolId",
          "type": "uint256"
        }
      ],
      "name": "PoolClosed",
      "type": "event"
    },
    {
      "anonymous": false,
      "inputs": [
        {
          "indexed": true,
          "internalType": "uint256",
          "name": "poolId",
          "type": "uint256"
        },
        {
          "indexed": false,
          "internalType": "uint256",
          "name": "numberOfTeams",
          "type": "uint256"
        },
        {
          "indexed": false,
          "internalType": "uint256",
          "name": "startTime",
          "type": "uint256"
        }
      ],
      "name": "PoolCreated",
      "type": "event"
    },
    {
      "anonymous": false,
      "inputs": [
        {
          "indexed": true,
          "internalType": "uint256",
          "name": "poolId",
          "type": "uint256"
        },
        {
          "indexed": false,
          "internalType": "uint256[]",
          "name": "winnerId",
          "type": "uint256[]"
        }
      ],
      "name": "PoolGraded",
      "type": "event"
    },
    {
      "anonymous": false,
      "inputs": [
        {
          "indexed": true,
          "internalType": "uint256",
          "name": "poolId",
          "type": "uint256"
        }
      ],
      "name": "PoolStarted",
      "type": "event"
    },
    {
      "anonymous": false,
      "inputs": [
        {
          "indexed": true,
          "internalType": "uint256",
          "name": "poolId_",
          "type": "uint256"
        },
        {
          "indexed": true,
          "internalType": "uint256",
          "name": "status_",
          "type": "uint256"
        }
      ],
      "name": "PoolStateUpdated",
      "type": "event"
    },
    {
      "anonymous": false,
      "inputs": [
        {
          "indexed": true,
          "internalType": "bytes32",
          "name": "role",
          "type": "bytes32"
        },
        {
          "indexed": true,
          "internalType": "bytes32",
          "name": "previousAdminRole",
          "type": "bytes32"
        },
        {
          "indexed": true,
          "internalType": "bytes32",
          "name": "newAdminRole",
          "type": "bytes32"
        }
      ],
      "name": "RoleAdminChanged",
      "type": "event"
    },
    {
      "anonymous": false,
      "inputs": [
        {
          "indexed": true,
          "internalType": "bytes32",
          "name": "role",
          "type": "bytes32"
        },
        {
          "indexed": true,
          "internalType": "address",
          "name": "account",
          "type": "address"
        },
        {
          "indexed": true,
          "internalType": "address",
          "name": "sender",
          "type": "address"
        }
      ],
      "name": "RoleGranted",
      "type": "event"
    },
    {
      "anonymous": false,
      "inputs": [
        {
          "indexed": true,
          "internalType": "bytes32",
          "name": "role",
          "type": "bytes32"
        },
        {
          "indexed": true,
          "internalType": "address",
          "name": "account",
          "type": "address"
        },
        {
          "indexed": true,
          "internalType": "address",
          "name": "sender",
          "type": "address"
        }
      ],
      "name": "RoleRevoked",
      "type": "event"
    },
    {
      "anonymous": false,
      "inputs": [
        {
          "indexed": true,
          "internalType": "uint256",
          "name": "poolId",
          "type": "uint256"
        },
        {
          "indexed": false,
          "internalType": "uint256",
          "name": "teamId",
          "type": "uint256"
        }
      ],
      "name": "TeamAdded",
      "type": "event"
    },
    {
      "anonymous": false,
      "inputs": [
        {
          "indexed": true,
          "internalType": "uint256",
          "name": "poolId",
          "type": "uint256"
        },
        {
          "indexed": false,
          "internalType": "uint256",
          "name": "teamId",
          "type": "uint256"
        }
      ],
      "name": "TeamRemoved",
      "type": "event"
    },
    {
      "anonymous": false,
      "inputs": [
        {
          "indexed": true,
          "internalType": "address",
          "name": "implementation",
          "type": "address"
        }
      ],
      "name": "Upgraded",
      "type": "event"
    },
    {
      "inputs": [],
      "name": "ADMIN_ROLE",
      "outputs": [
        {
          "internalType": "bytes32",
          "name": "",
          "type": "bytes32"
        }
      ],
      "stateMutability": "view",
      "type": "function"
    },
    {
      "inputs": [],
      "name": "DEFAULT_ADMIN_ROLE",
      "outputs": [
        {
          "internalType": "bytes32",
          "name": "",
          "type": "bytes32"
        }
      ],
      "stateMutability": "view",
      "type": "function"
    },
    {
      "inputs": [],
      "name": "GAME_ADMIN_ROLE",
      "outputs": [
        {
          "internalType": "bytes32",
          "name": "",
          "type": "bytes32"
        }
      ],
      "stateMutability": "view",
      "type": "function"
    },
    {
      "inputs": [],
      "name": "MULTISIG_ROLE",
      "outputs": [
        {
          "internalType": "bytes32",
          "name": "",
          "type": "bytes32"
        }
      ],
      "stateMutability": "view",
      "type": "function"
    },
    {
      "inputs": [
        {
          "internalType": "address",
          "name": "player_",
          "type": "address"
        },
        {
          "internalType": "uint256",
          "name": "poolId_",
          "type": "uint256"
        },
        {
          "internalType": "uint256",
          "name": "teamId_",
          "type": "uint256"
        },
        {
          "internalType": "uint256",
          "name": "amount_",
          "type": "uint256"
        },
        {
          "internalType": "uint256",
          "name": "commission_",
          "type": "uint256"
        }
      ],
      "name": "betPlaced",
      "outputs": [
        {
          "internalType": "bool",
          "name": "",
          "type": "bool"
        }
      ],
      "stateMutability": "nonpayable",
      "type": "function"
    },
    {
      "inputs": [
        {
          "internalType": "uint256",
          "name": "",
          "type": "uint256"
        }
      ],
      "name": "bets",
      "outputs": [
        {
          "internalType": "uint256",
          "name": "id",
          "type": "uint256"
        },
        {
          "internalType": "uint256",
          "name": "poolId",
          "type": "uint256"
        },
        {
          "internalType": "uint256",
          "name": "teamId",
          "type": "uint256"
        },
        {
          "internalType": "uint256",
          "name": "amount",
          "type": "uint256"
        },
        {
          "internalType": "address",
          "name": "player",
          "type": "address"
        },
        {
          "internalType": "uint256",
          "name": "createdAt",
          "type": "uint256"
        }
      ],
      "stateMutability": "view",
      "type": "function"
    },
    {
      "inputs": [],
      "name": "betting",
      "outputs": [
        {
          "internalType": "contract IBetting",
          "name": "",
          "type": "address"
        }
      ],
      "stateMutability": "view",
      "type": "function"
    },
    {
      "inputs": [
        {
          "internalType": "uint256",
          "name": "poolId_",
          "type": "uint256"
        }
      ],
      "name": "cancelPool",
      "outputs": [],
      "stateMutability": "nonpayable",
      "type": "function"
    },
    {
      "inputs": [
        {
          "internalType": "uint256",
          "name": "poolId_",
          "type": "uint256"
        }
      ],
      "name": "closePool",
      "outputs": [],
      "stateMutability": "nonpayable",
      "type": "function"
    },
    {
      "inputs": [
        {
          "internalType": "address",
          "name": "player_",
          "type": "address"
        },
        {
          "internalType": "uint256",
          "name": "poolId_",
          "type": "uint256"
        },
        {
          "internalType": "uint256",
          "name": "amount_",
          "type": "uint256"
        }
      ],
      "name": "commissionClaimed",
      "outputs": [
        {
          "internalType": "bool",
          "name": "",
          "type": "bool"
        }
      ],
      "stateMutability": "nonpayable",
      "type": "function"
    },
    {
      "inputs": [
        {
          "internalType": "uint256",
          "name": "numberOfTeams_",
          "type": "uint256"
        },
        {
          "internalType": "string",
          "name": "eventName_",
          "type": "string"
        },
        {
          "internalType": "uint256",
          "name": "startTime_",
          "type": "uint256"
        },
        {
          "internalType": "uint256",
          "name": "duration_",
          "type": "uint256"
        },
        {
          "internalType": "string[]",
          "name": "teams_",
          "type": "string[]"
        },
        {
          "internalType": "string",
          "name": "uri_",
          "type": "string"
        }
      ],
      "name": "createPool",
      "outputs": [],
      "stateMutability": "nonpayable",
      "type": "function"
    },
    {
      "inputs": [
        {
          "internalType": "uint256",
          "name": "poolId_",
          "type": "uint256"
        },
        {
          "internalType": "string",
          "name": "team_",
          "type": "string"
        }
      ],
      "name": "createTeam",
      "outputs": [],
      "stateMutability": "nonpayable",
      "type": "function"
    },
    {
      "inputs": [],
      "name": "erc20Contract",
      "outputs": [
        {
          "internalType": "contract IERC20Upgradeable",
          "name": "",
          "type": "address"
        }
      ],
      "stateMutability": "view",
      "type": "function"
    },
    {
      "inputs": [
        {
          "internalType": "uint256",
          "name": "poolId_",
          "type": "uint256"
        }
      ],
      "name": "getPool",
      "outputs": [
        {
          "components": [
            {
              "internalType": "uint256",
              "name": "id",
              "type": "uint256"
            },
            {
              "internalType": "uint256",
              "name": "numberOfTeams",
              "type": "uint256"
            },
            {
              "internalType": "string",
              "name": "eventName",
              "type": "string"
            },
            {
              "internalType": "uint256",
              "name": "totalBets",
              "type": "uint256"
            },
            {
              "internalType": "uint256",
              "name": "totalAmount",
              "type": "uint256"
            },
            {
              "internalType": "uint256",
              "name": "payoutClaimed",
              "type": "uint256"
            },
            {
              "internalType": "uint256",
              "name": "totalCommissions",
              "type": "uint256"
            },
            {
              "internalType": "uint256",
              "name": "commissionsClaimed",
              "type": "uint256"
            },
            {
              "internalType": "enum Storage.PoolStatus",
              "name": "status",
              "type": "uint8"
            },
            {
              "internalType": "uint256[]",
              "name": "winners",
              "type": "uint256[]"
            },
            {
              "internalType": "uint256",
              "name": "startTime",
              "type": "uint256"
            },
            {
              "internalType": "uint256",
              "name": "endTime",
              "type": "uint256"
            },
            {
              "internalType": "contract IERC1155PresetMinterPauser",
              "name": "mintContract",
              "type": "address"
            },
            {
              "internalType": "bool",
              "name": "commissionDisabled",
              "type": "bool"
            },
            {
              "internalType": "bool",
              "name": "paymentDisabled",
              "type": "bool"
            }
          ],
          "internalType": "struct Storage.Pool",
          "name": "",
          "type": "tuple"
        }
      ],
      "stateMutability": "view",
      "type": "function"
    },
    {
      "inputs": [
        {
          "internalType": "uint256",
          "name": "poolId_",
          "type": "uint256"
        },
        {
          "internalType": "uint256",
          "name": "teamId_",
          "type": "uint256"
        }
      ],
      "name": "getPoolTeam",
      "outputs": [
        {
          "components": [
            {
              "internalType": "uint256",
              "name": "id",
              "type": "uint256"
            },
            {
              "internalType": "string",
              "name": "name",
              "type": "string"
            },
            {
              "internalType": "enum Storage.TeamStatus",
              "name": "status",
              "type": "uint8"
            },
            {
              "internalType": "uint256",
              "name": "totalAmount",
              "type": "uint256"
            }
          ],
          "internalType": "struct Storage.Team",
          "name": "",
          "type": "tuple"
        }
      ],
      "stateMutability": "view",
      "type": "function"
    },
    {
      "inputs": [
        {
          "internalType": "uint256",
          "name": "poolId_",
          "type": "uint256"
        }
      ],
      "name": "getPoolTeams",
      "outputs": [
        {
          "components": [
            {
              "internalType": "uint256",
              "name": "id",
              "type": "uint256"
            },
            {
              "internalType": "string",
              "name": "name",
              "type": "string"
            },
            {
              "internalType": "enum Storage.TeamStatus",
              "name": "status",
              "type": "uint8"
            },
            {
              "internalType": "uint256",
              "name": "totalAmount",
              "type": "uint256"
            }
          ],
          "internalType": "struct Storage.Team[]",
          "name": "",
          "type": "tuple[]"
        }
      ],
      "stateMutability": "view",
      "type": "function"
    },
    {
      "inputs": [
        {
          "internalType": "bytes32",
          "name": "role",
          "type": "bytes32"
        }
      ],
      "name": "getRoleAdmin",
      "outputs": [
        {
          "internalType": "bytes32",
          "name": "",
          "type": "bytes32"
        }
      ],
      "stateMutability": "view",
      "type": "function"
    },
    {
      "inputs": [],
      "name": "getTotalPools",
      "outputs": [
        {
          "internalType": "uint256",
          "name": "",
          "type": "uint256"
        }
      ],
      "stateMutability": "view",
      "type": "function"
    },
    {
      "inputs": [
        {
          "internalType": "uint256",
          "name": "poolId_",
          "type": "uint256"
        },
        {
          "internalType": "uint256",
          "name": "winnerId_",
          "type": "uint256"
        }
      ],
      "name": "gradePool",
      "outputs": [],
      "stateMutability": "nonpayable",
      "type": "function"
    },
    {
      "inputs": [
        {
          "internalType": "bytes32",
          "name": "role",
          "type": "bytes32"
        },
        {
          "internalType": "address",
          "name": "account",
          "type": "address"
        }
      ],
      "name": "grantRole",
      "outputs": [],
      "stateMutability": "nonpayable",
      "type": "function"
    },
    {
      "inputs": [
        {
          "internalType": "bytes32",
          "name": "role",
          "type": "bytes32"
        },
        {
          "internalType": "address",
          "name": "account",
          "type": "address"
        }
      ],
      "name": "hasRole",
      "outputs": [
        {
          "internalType": "bool",
          "name": "",
          "type": "bool"
        }
      ],
      "stateMutability": "view",
      "type": "function"
    },
    {
      "inputs": [
        {
          "internalType": "address",
          "name": "erc20Contract_",
          "type": "address"
        },
        {
          "internalType": "address",
          "name": "vaultContract_",
          "type": "address"
        },
        {
          "internalType": "address",
          "name": "signer_",
          "type": "address"
        },
        {
          "internalType": "address",
          "name": "proxy_",
          "type": "address"
        }
      ],
      "name": "initialize",
      "outputs": [],
      "stateMutability": "nonpayable",
      "type": "function"
    },
    {
      "inputs": [
        {
          "internalType": "uint256",
          "name": "poolId_",
          "type": "uint256"
        },
        {
          "internalType": "uint256[]",
          "name": "winnerIds_",
          "type": "uint256[]"
        }
      ],
      "name": "markPoolTie",
      "outputs": [],
      "stateMutability": "nonpayable",
      "type": "function"
    },
    {
      "inputs": [
        {
          "internalType": "address",
          "name": "player_",
          "type": "address"
        },
        {
          "internalType": "uint256",
          "name": "poolId_",
          "type": "uint256"
        },
        {
          "internalType": "uint256",
          "name": "amount_",
          "type": "uint256"
        }
      ],
      "name": "payoutClaimed",
      "outputs": [
        {
          "internalType": "bool",
          "name": "",
          "type": "bool"
        }
      ],
      "stateMutability": "nonpayable",
      "type": "function"
    },
    {
      "inputs": [
        {
          "internalType": "uint256",
          "name": "",
          "type": "uint256"
        },
        {
          "internalType": "uint256",
          "name": "",
          "type": "uint256"
        }
      ],
      "name": "poolBets",
      "outputs": [
        {
          "internalType": "uint256",
          "name": "",
          "type": "uint256"
        }
      ],
      "stateMutability": "view",
      "type": "function"
    },
    {
      "inputs": [
        {
          "internalType": "uint256",
          "name": "",
          "type": "uint256"
        }
      ],
      "name": "poolStatus",
      "outputs": [
        {
          "internalType": "uint256",
          "name": "",
          "type": "uint256"
        }
      ],
      "stateMutability": "view",
      "type": "function"
    },
    {
      "inputs": [
        {
          "internalType": "uint256",
          "name": "",
          "type": "uint256"
        },
        {
          "internalType": "uint256",
          "name": "",
          "type": "uint256"
        }
      ],
      "name": "poolTeams",
      "outputs": [
        {
          "internalType": "uint256",
          "name": "id",
          "type": "uint256"
        },
        {
          "internalType": "string",
          "name": "name",
          "type": "string"
        },
        {
          "internalType": "enum Storage.TeamStatus",
          "name": "status",
          "type": "uint8"
        },
        {
          "internalType": "uint256",
          "name": "totalAmount",
          "type": "uint256"
        }
      ],
      "stateMutability": "view",
      "type": "function"
    },
    {
      "inputs": [
        {
          "internalType": "uint256",
          "name": "",
          "type": "uint256"
        }
      ],
      "name": "pools",
      "outputs": [
        {
          "internalType": "uint256",
          "name": "id",
          "type": "uint256"
        },
        {
          "internalType": "uint256",
          "name": "numberOfTeams",
          "type": "uint256"
        },
        {
          "internalType": "string",
          "name": "eventName",
          "type": "string"
        },
        {
          "internalType": "uint256",
          "name": "totalBets",
          "type": "uint256"
        },
        {
          "internalType": "uint256",
          "name": "totalAmount",
          "type": "uint256"
        },
        {
          "internalType": "uint256",
          "name": "payoutClaimed",
          "type": "uint256"
        },
        {
          "internalType": "uint256",
          "name": "totalCommissions",
          "type": "uint256"
        },
        {
          "internalType": "uint256",
          "name": "commissionsClaimed",
          "type": "uint256"
        },
        {
          "internalType": "enum Storage.PoolStatus",
          "name": "status",
          "type": "uint8"
        },
        {
          "internalType": "uint256",
          "name": "startTime",
          "type": "uint256"
        },
        {
          "internalType": "uint256",
          "name": "endTime",
          "type": "uint256"
        },
        {
          "internalType": "contract IERC1155PresetMinterPauser",
          "name": "mintContract",
          "type": "address"
        },
        {
          "internalType": "bool",
          "name": "commissionDisabled",
          "type": "bool"
        },
        {
          "internalType": "bool",
          "name": "paymentDisabled",
          "type": "bool"
        }
      ],
      "stateMutability": "view",
      "type": "function"
    },
    {
      "inputs": [],
      "name": "proxiableUUID",
      "outputs": [
        {
          "internalType": "bytes32",
          "name": "",
          "type": "bytes32"
        }
      ],
      "stateMutability": "view",
      "type": "function"
    },
    {
      "inputs": [],
      "name": "proxy",
      "outputs": [
        {
          "internalType": "contract IProxy",
          "name": "",
          "type": "address"
        }
      ],
      "stateMutability": "view",
      "type": "function"
    },
    {
      "inputs": [
        {
          "internalType": "address",
          "name": "player_",
          "type": "address"
        },
        {
          "internalType": "uint256",
          "name": "poolId_",
          "type": "uint256"
        },
        {
          "internalType": "uint256",
          "name": "amount_",
          "type": "uint256"
        }
      ],
      "name": "refundClaimed",
      "outputs": [
        {
          "internalType": "bool",
          "name": "",
          "type": "bool"
        }
      ],
      "stateMutability": "nonpayable",
      "type": "function"
    },
    {
      "inputs": [
        {
          "internalType": "bytes32",
          "name": "role",
          "type": "bytes32"
        },
        {
          "internalType": "address",
          "name": "account",
          "type": "address"
        }
      ],
      "name": "renounceRole",
      "outputs": [],
      "stateMutability": "nonpayable",
      "type": "function"
    },
    {
      "inputs": [
        {
          "internalType": "bytes32",
          "name": "role",
          "type": "bytes32"
        },
        {
          "internalType": "address",
          "name": "account",
          "type": "address"
        }
      ],
      "name": "revokeRole",
      "outputs": [],
      "stateMutability": "nonpayable",
      "type": "function"
    },
    {
      "inputs": [],
      "name": "signer",
      "outputs": [
        {
          "internalType": "address",
          "name": "",
          "type": "address"
        }
      ],
      "stateMutability": "view",
      "type": "function"
    },
    {
      "inputs": [
        {
          "internalType": "uint256",
          "name": "poolId_",
          "type": "uint256"
        }
      ],
      "name": "startPool",
      "outputs": [],
      "stateMutability": "nonpayable",
      "type": "function"
    },
    {
      "inputs": [
        {
          "internalType": "bytes4",
          "name": "interfaceId",
          "type": "bytes4"
        }
      ],
      "name": "supportsInterface",
      "outputs": [
        {
          "internalType": "bool",
          "name": "",
          "type": "bool"
        }
      ],
      "stateMutability": "view",
      "type": "function"
    },
    {
      "inputs": [
        {
          "internalType": "uint256",
          "name": "poolId_",
          "type": "uint256"
        }
      ],
      "name": "transferCommissionToVault",
      "outputs": [],
      "stateMutability": "nonpayable",
      "type": "function"
    },
    {
      "inputs": [
        {
          "internalType": "uint256",
          "name": "poolId_",
          "type": "uint256"
        }
      ],
      "name": "transferPayoutToVault",
      "outputs": [],
      "stateMutability": "nonpayable",
      "type": "function"
    },
    {
      "inputs": [
        {
          "internalType": "address",
          "name": "betting_",
          "type": "address"
        }
      ],
      "name": "updateBettingAddress",
      "outputs": [],
      "stateMutability": "nonpayable",
      "type": "function"
    },
    {
      "inputs": [
        {
          "internalType": "uint256",
          "name": "poolId_",
          "type": "uint256"
        },
        {
          "internalType": "address",
          "name": "mintAddress_",
          "type": "address"
        }
      ],
      "name": "updatePoolMintAddress",
      "outputs": [],
      "stateMutability": "nonpayable",
      "type": "function"
    },
    {
      "inputs": [
        {
          "internalType": "uint256",
          "name": "poolId_",
          "type": "uint256"
        },
        {
          "internalType": "enum Storage.PoolStatus",
          "name": "status_",
          "type": "uint8"
        }
      ],
      "name": "updatePoolState",
      "outputs": [],
      "stateMutability": "nonpayable",
      "type": "function"
    },
    {
      "inputs": [
        {
          "internalType": "address",
          "name": "proxy_",
          "type": "address"
        }
      ],
      "name": "updateProxyAddress",
      "outputs": [],
      "stateMutability": "nonpayable",
      "type": "function"
    },
    {
      "inputs": [
        {
          "internalType": "uint256",
          "name": "poolId_",
          "type": "uint256"
        },
        {
          "internalType": "uint256",
          "name": "startTime_",
          "type": "uint256"
        },
        {
          "internalType": "uint256",
          "name": "duration_",
          "type": "uint256"
        }
      ],
      "name": "updateStartTime",
      "outputs": [],
      "stateMutability": "nonpayable",
      "type": "function"
    },
    {
      "inputs": [
        {
          "internalType": "address",
          "name": "vaultContract_",
          "type": "address"
        }
      ],
      "name": "updateVaultContract",
      "outputs": [],
      "stateMutability": "nonpayable",
      "type": "function"
    },
    {
      "inputs": [
        {
          "internalType": "address",
          "name": "signer_",
          "type": "address"
        }
      ],
      "name": "updateVeraSignerAddress",
      "outputs": [],
      "stateMutability": "nonpayable",
      "type": "function"
    },
    {
      "inputs": [
        {
          "internalType": "address",
          "name": "erc20Contract_",
          "type": "address"
        }
      ],
      "name": "updateerc20Contract",
      "outputs": [],
      "stateMutability": "nonpayable",
      "type": "function"
    },
    {
      "inputs": [
        {
          "internalType": "address",
          "name": "newImplementation",
          "type": "address"
        }
      ],
      "name": "upgradeTo",
      "outputs": [],
      "stateMutability": "nonpayable",
      "type": "function"
    },
    {
      "inputs": [
        {
          "internalType": "address",
          "name": "newImplementation",
          "type": "address"
        },
        {
          "internalType": "bytes",
          "name": "data",
          "type": "bytes"
        }
      ],
      "name": "upgradeToAndCall",
      "outputs": [],
      "stateMutability": "payable",
      "type": "function"
    },
    {
      "inputs": [],
      "name": "vaultContract",
      "outputs": [
        {
          "internalType": "address",
          "name": "",
          "type": "address"
        }
      ],
      "stateMutability": "view",
      "type": "function"
    }
  ],
  "bytecode": "0x60a06040523060805234801561001457600080fd5b506080516150f461004c600039600081816114a60152818161152b01528181611daf01528181611e340152611f1a01526150f46000f3fe60806040526004361061031e5760003560e01c8063827c7889116101a5578063d08c3b3b116100ec578063e328400c11610095578063ec5568891161006f578063ec556889146109cd578063f14560f5146109ee578063f665d10b14610a0e578063f8c8765e14610a3c57600080fd5b8063e328400c1461094c578063e768896c14610980578063eac32a8e146109ad57600080fd5b8063d547741f116100c6578063d547741f146108ec578063de9a091b1461090c578063e2a5c6631461092c57600080fd5b8063d08c3b3b14610887578063d3e37839146108b7578063d3ffe67a146108d757600080fd5b8063ac4afa381161014e578063b359c3b011610128578063b359c3b014610813578063b92a92bc14610833578063be22d27d1461085357600080fd5b8063ac4afa3814610799578063b1684e59146107d3578063b264b800146107f357600080fd5b8063a217fddf1161017f578063a217fddf14610744578063a8f6c91314610759578063a901d15c1461077957600080fd5b8063827c7889146106be57806391d14854146106de578063970e982a1461072457600080fd5b806337de615f116102695780634f1ef286116102125780636579e09a116101ec5780636579e09a1461064a5780637098c5b21461066a57806375b238fc1461068a57600080fd5b80634f1ef2861461060257806352d1902d146106155780635fc628fe1461062a57600080fd5b806340fcd5631161024357806340fcd5631461059557806347d666a3146105c25780634846f8b6146105e257600080fd5b806337de615f1461053457806339b4b0d6146105545780633ecd12111461057557600080fd5b8063248a9ca3116102cb5780632f2ff15d116102a55780632f2ff15d146104d457806336568abe146104f45780633659cfe61461051457600080fd5b8063248a9ca3146104565780632b263ab7146104945780632ce4acff146104b457600080fd5b80632274346b116102fc5780632274346b146103a757806322af00fa146103df578063238ac9331461043557600080fd5b80630121c33e1461032357806301ffc9a714610345578063068bcd8d1461037a575b600080fd5b34801561032f57600080fd5b5061034361033e36600461459b565b610a5c565b005b34801561035157600080fd5b506103656103603660046145bd565b610cb4565b60405190151581526020015b60405180910390f35b34801561038657600080fd5b5061039a6103953660046145ff565b610d4d565b60405161037191906146d5565b3480156103b357600080fd5b5060fc546103c7906001600160a01b031681565b6040516001600160a01b039091168152602001610371565b3480156103eb57600080fd5b506103ff6103fa3660046145ff565b610f36565b6040805196875260208701959095529385019290925260608401526001600160a01b0316608083015260a082015260c001610371565b34801561044157600080fd5b50610100546103c7906001600160a01b031681565b34801561046257600080fd5b506104866104713660046145ff565b600090815260c9602052604090206001015490565b604051908152602001610371565b3480156104a057600080fd5b506103656104af3660046147ea565b610f88565b3480156104c057600080fd5b506103436104cf3660046145ff565b611065565b3480156104e057600080fd5b506103436104ef36600461481f565b6113e5565b34801561050057600080fd5b5061034361050f36600461481f565b61140f565b34801561052057600080fd5b5061034361052f36600461484f565b61149b565b34801561054057600080fd5b5061034361054f3660046145ff565b611617565b34801561056057600080fd5b50610101546103c7906001600160a01b031681565b34801561058157600080fd5b506103436105903660046145ff565b611776565b3480156105a157600080fd5b506105b56105b03660046145ff565b611adb565b60405161037191906148c4565b3480156105ce57600080fd5b506103436105dd36600461484f565b611c26565b3480156105ee57600080fd5b506103436105fd36600461484f565b611cda565b6103436106103660046149c5565b611da4565b34801561062157600080fd5b50610486611f0d565b34801561063657600080fd5b5061034361064536600461484f565b611fd2565b34801561065657600080fd5b5061048661066536600461459b565b612086565b34801561067657600080fd5b50610343610685366004614a49565b6120b8565b34801561069657600080fd5b506104867fa49807205ce4d355092ef5a8a18f56e8913cf4a201fbe287825b095693c2177581565b3480156106ca57600080fd5b506103436106d93660046145ff565b6122b5565b3480156106ea57600080fd5b506103656106f936600461481f565b600091825260c9602090815260408084206001600160a01b0393909316845291905290205460ff1690565b34801561073057600080fd5b5061036561073f3660046147ea565b612434565b34801561075057600080fd5b50610486600081565b34801561076557600080fd5b5060fb546103c7906001600160a01b031681565b34801561078557600080fd5b506103436107943660046145ff565b6124ff565b3480156107a557600080fd5b506107b96107b43660046145ff565b612649565b6040516103719e9d9c9b9a99989796959493929190614a86565b3480156107df57600080fd5b506103656107ee3660046147ea565b612768565b3480156107ff57600080fd5b5061034361080e366004614b1e565b6127fa565b34801561081f57600080fd5b5061034361082e366004614b47565b6128f8565b34801561083f57600080fd5b5061034361084e366004614b97565b612a55565b34801561085f57600080fd5b506104867f9b7946abd96dccbe6cfc6cc2c13300ab429d93e16fa72dc459eeccda73817f0881565b34801561089357600080fd5b506108a76108a236600461459b565b612c66565b6040516103719493929190614c39565b3480156108c357600080fd5b506103656108d2366004614c70565b612d3f565b3480156108e357600080fd5b5060fd54610486565b3480156108f857600080fd5b5061034361090736600461481f565b612e9b565b34801561091857600080fd5b5061034361092736600461484f565b612ec0565b34801561093857600080fd5b50610343610947366004614cb4565b612f8a565b34801561095857600080fd5b506104867fa5a0b70b385ff7611cd3840916bd08b10829e5bf9e6637cf79dd9a427fc0e2ab81565b34801561098c57600080fd5b506109a061099b36600461459b565b6134f6565b6040516103719190614dc8565b3480156109b957600080fd5b506103436109c836600461484f565b61363b565b3480156109d957600080fd5b50610104546103c7906001600160a01b031681565b3480156109fa57600080fd5b50610343610a0936600461481f565b6136df565b348015610a1a57600080fd5b50610486610a293660046145ff565b6101036020526000908152604090205481565b348015610a4857600080fd5b50610343610a57366004614ddb565b613866565b7fa5a0b70b385ff7611cd3840916bd08b10829e5bf9e6637cf79dd9a427fc0e2ab610a8681613bd5565b8260fd548110610acb5760405162461bcd60e51b815260206004820152601d602482015260008051602061509f83398151915260448201526064015b60405180910390fd5b600060fd8581548110610ae057610ae0614e37565b60009182526020909120600d9091020190506004600882015460ff166004811115610b0d57610b0d614670565b1480610b3157506001600882015460ff166004811115610b2f57610b2f614670565b145b610ba35760405162461bcd60e51b815260206004820152603560248201527f42657474696e6741646d696e3a20506f6f6c207374617475732073686f756c6460448201527f2062652052756e6e696e67206f7220436c6f73656400000000000000000000006064820152608401610ac2565b600085815260ff60205260408120805486908110610bc357610bc3614e37565b600091825260209091206002600490920201015460ff166001811115610beb57610beb614670565b14610c4c5760405162461bcd60e51b815260206004820152602b60248201527f42657474696e6741646d696e3a205465616d207374617475732073686f756c6460448201526a0818994810dc99585d195960aa1b6064820152608401610ac2565b60088101805460ff191660021790556009810180546001810182556000828152602090200185905560405186917ffc5202f8bdf8ee68ee02ef3a56b265a2d6f9c5102b232ab3b5d1636adf0057de91610ca59190614e4d565b60405180910390a25050505050565b60007fffffffff0000000000000000000000000000000000000000000000000000000082167f7965db0b000000000000000000000000000000000000000000000000000000001480610d4757507f01ffc9a7000000000000000000000000000000000000000000000000000000007fffffffff000000000000000000000000000000000000000000000000000000008316145b92915050565b610d55614434565b60fd8281548110610d6857610d68614e37565b90600052602060002090600d0201604051806101e00160405290816000820154815260200160018201548152602001600282018054610da690614e94565b80601f0160208091040260200160405190810160405280929190818152602001828054610dd290614e94565b8015610e1f5780601f10610df457610100808354040283529160200191610e1f565b820191906000526020600020905b815481529060010190602001808311610e0257829003601f168201915b50505091835250506003820154602082015260048083015460408301526005830154606083015260068301546080830152600783015460a0830152600883015460c09092019160ff1690811115610e7857610e78614670565b6004811115610e8957610e89614670565b815260200160098201805480602002602001604051908101604052809291908181526020018280548015610edc57602002820191906000526020600020905b815481526020019060010190808311610ec8575b5050509183525050600a8201546020820152600b8201546040820152600c909101546001600160a01b038116606083015260ff600160a01b8204811615156080840152600160a81b90910416151560a09091015292915050565b60fe8181548110610f4657600080fd5b6000918252602090912060069091020180546001820154600283015460038401546004850154600590950154939550919390926001600160a01b039091169086565b610101546000906001600160a01b0316331461101a5760405162461bcd60e51b8152602060048201526044602482018190527f42657474696e6741646d696e3a204f6e6c792062657474696e6720636f6e7472908201527f61637420697320617574686f72697a656420666f722074686973206f706572616064820152633a34b7b760e11b608482015260a401610ac2565b600060fd848154811061102f5761102f614e37565b90600052602060002090600d02019050828160070160008282546110539190614ee5565b909155506001925050505b9392505050565b7fa5a0b70b385ff7611cd3840916bd08b10829e5bf9e6637cf79dd9a427fc0e2ab61108f81613bd5565b8160fd5481106110cf5760405162461bcd60e51b815260206004820152601d602482015260008051602061509f8339815191526044820152606401610ac2565b600060fd84815481106110e4576110e4614e37565b60009182526020909120600d9091020190506002600882015460ff16600481111561111157611111614670565b146111725760405162461bcd60e51b815260206004820152602b60248201527f42657474696e6741646d696e3a20506f6f6c207374617475732073686f756c6460448201526a08189948111958da59195960aa1b6064820152608401610ac2565b4281600b015462278d006111869190614ee5565b106111f95760405162461bcd60e51b815260206004820152603560248201527f42657474696e6741646d696e3a2043616e6e6f74207472616e7366657220626560448201527f666f7265203330206461797320646561646c696e6500000000000000000000006064820152608401610ac2565b60008160070154826006015461120f9190614efd565b9050600081116112875760405162461bcd60e51b815260206004820152603160248201527f42657474696e6741646d696e3a204e6f20636f6d6d697373696f6e206176616960448201527f6c61626c6520746f207472616e736665720000000000000000000000000000006064820152608401610ac2565b600c820154600160a01b900460ff16156113095760405162461bcd60e51b815260206004820152602c60248201527f42657474696e6741646d696e3a20436f6d6d697373696f6e20616c726561647960448201527f207472616e7366657272656400000000000000000000000000000000000000006064820152608401610ac2565b610101546040517f2ce4acff000000000000000000000000000000000000000000000000000000008152600481018390526001600160a01b0390911690632ce4acff90602401600060405180830381600087803b15801561136957600080fd5b505af115801561137d573d6000803e3d6000fd5b505050600c830180547fffffffffffffffffffffff00ffffffffffffffffffffffffffffffffffffffff16600160a01b1790555060405185907f59dc0958e93eacc6a9afdb86deaf872e2d39e792aba237f41dd53e8b71ca330d90610ca59084815260200190565b600082815260c9602052604090206001015461140081613bd5565b61140a8383613bdf565b505050565b6001600160a01b038116331461148d5760405162461bcd60e51b815260206004820152602f60248201527f416363657373436f6e74726f6c3a2063616e206f6e6c792072656e6f756e636560448201527f20726f6c657320666f722073656c6600000000000000000000000000000000006064820152608401610ac2565b6114978282613c81565b5050565b306001600160a01b037f00000000000000000000000000000000000000000000000000000000000000001614156115295760405162461bcd60e51b815260206004820152602c60248201527f46756e6374696f6e206d7573742062652063616c6c6564207468726f7567682060448201526b19195b1959d85d1958d85b1b60a21b6064820152608401610ac2565b7f00000000000000000000000000000000000000000000000000000000000000006001600160a01b03166115847f360894a13ba1a3210667c828492db98dca3e2076cc3735a920a3ca505d382bbc546001600160a01b031690565b6001600160a01b0316146115ef5760405162461bcd60e51b815260206004820152602c60248201527f46756e6374696f6e206d7573742062652063616c6c6564207468726f7567682060448201526b6163746976652070726f787960a01b6064820152608401610ac2565b6115f881613d04565b6040805160008082526020820190925261161491839190613d2e565b50565b7f9b7946abd96dccbe6cfc6cc2c13300ab429d93e16fa72dc459eeccda73817f0861164181613bd5565b8160fd5481106116815760405162461bcd60e51b815260206004820152601d602482015260008051602061509f8339815191526044820152606401610ac2565b600060fd848154811061169657611696614e37565b60009182526020909120600d9091020190506001600882015460ff1660048111156116c3576116c3614670565b146117365760405162461bcd60e51b815260206004820152602b60248201527f42657474696e6741646d696e3a20506f6f6c207374617475732073686f756c6460448201527f2062652052756e6e696e670000000000000000000000000000000000000000006064820152608401610ac2565b60088101805460ff1916600417905560405184907f925a19753e677c9dc36a80e0fc824ca0c5b1afde494872b43daccab9ffeaffd490600090a250505050565b7fa5a0b70b385ff7611cd3840916bd08b10829e5bf9e6637cf79dd9a427fc0e2ab6117a081613bd5565b8160fd5481106117e05760405162461bcd60e51b815260206004820152601d602482015260008051602061509f8339815191526044820152606401610ac2565b600060fd84815481106117f5576117f5614e37565b60009182526020909120600d9091020190506002600882015460ff16600481111561182257611822614670565b146118835760405162461bcd60e51b815260206004820152602b60248201527f42657474696e6741646d696e3a20506f6f6c207374617475732073686f756c6460448201526a08189948111958da59195960aa1b6064820152608401610ac2565b4281600b01546276a7006118979190614ee5565b1061190a5760405162461bcd60e51b815260206004820152603560248201527f42657474696e6741646d696e3a2043616e6e6f74207472616e7366657220626560448201527f666f7265203930206461797320646561646c696e6500000000000000000000006064820152608401610ac2565b6000816005015482600401546119209190614efd565b9050600081116119985760405162461bcd60e51b815260206004820152602d60248201527f42657474696e6741646d696e3a204e6f207061796f757420617661696c61626c60448201527f6520746f207472616e73666572000000000000000000000000000000000000006064820152608401610ac2565b600c820154600160a81b900460ff1615611a1a5760405162461bcd60e51b815260206004820152602860248201527f42657474696e6741646d696e3a205061796f757420616c72656164792074726160448201527f6e736665727265640000000000000000000000000000000000000000000000006064820152608401610ac2565b610101546040517f3ecd1211000000000000000000000000000000000000000000000000000000008152600481018390526001600160a01b0390911690633ecd121190602401600060405180830381600087803b158015611a7a57600080fd5b505af1158015611a8e573d6000803e3d6000fd5b505050600c8301805460ff60a81b1916600160a81b1790555060405185907f3409735dcbc5d8c657b5481653ba4c43a3a0a31223224eb0a694d98db67534b390610ca59084815260200190565b606060ff6000838152602001908152602001600020805480602002602001604051908101604052809291908181526020016000905b82821015611c1b578382906000526020600020906004020160405180608001604052908160008201548152602001600182018054611b4d90614e94565b80601f0160208091040260200160405190810160405280929190818152602001828054611b7990614e94565b8015611bc65780601f10611b9b57610100808354040283529160200191611bc6565b820191906000526020600020905b815481529060010190602001808311611ba957829003601f168201915b5050509183525050600282015460209091019060ff166001811115611bed57611bed614670565b6001811115611bfe57611bfe614670565b815260200160038201548152505081526020019060010190611b10565b505050509050919050565b7fa49807205ce4d355092ef5a8a18f56e8913cf4a201fbe287825b095693c21775611c5081613bd5565b6001600160a01b038216611cb75760405162461bcd60e51b815260206004820152602860248201527f42657474696e6741646d696e3a205a65726f207661756c74436f6e7472616374604482015267206164647265737360c01b6064820152608401610ac2565b5060fc80546001600160a01b0319166001600160a01b0392909216919091179055565b7fa49807205ce4d355092ef5a8a18f56e8913cf4a201fbe287825b095693c21775611d0481613bd5565b6001600160a01b038216611d805760405162461bcd60e51b815260206004820152602160248201527f42657474696e6741646d696e3a205a65726f205369676e65722061646472657360448201527f73000000000000000000000000000000000000000000000000000000000000006064820152608401610ac2565b5061010080546001600160a01b0319166001600160a01b0392909216919091179055565b306001600160a01b037f0000000000000000000000000000000000000000000000000000000000000000161415611e325760405162461bcd60e51b815260206004820152602c60248201527f46756e6374696f6e206d7573742062652063616c6c6564207468726f7567682060448201526b19195b1959d85d1958d85b1b60a21b6064820152608401610ac2565b7f00000000000000000000000000000000000000000000000000000000000000006001600160a01b0316611e8d7f360894a13ba1a3210667c828492db98dca3e2076cc3735a920a3ca505d382bbc546001600160a01b031690565b6001600160a01b031614611ef85760405162461bcd60e51b815260206004820152602c60248201527f46756e6374696f6e206d7573742062652063616c6c6564207468726f7567682060448201526b6163746976652070726f787960a01b6064820152608401610ac2565b611f0182613d04565b61149782826001613d2e565b6000306001600160a01b037f00000000000000000000000000000000000000000000000000000000000000001614611fad5760405162461bcd60e51b815260206004820152603860248201527f555550535570677261646561626c653a206d757374206e6f742062652063616c60448201527f6c6564207468726f7567682064656c656761746563616c6c00000000000000006064820152608401610ac2565b507f360894a13ba1a3210667c828492db98dca3e2076cc3735a920a3ca505d382bbc90565b7fa49807205ce4d355092ef5a8a18f56e8913cf4a201fbe287825b095693c21775611ffc81613bd5565b6001600160a01b0382166120635760405162461bcd60e51b815260206004820152602860248201527f42657474696e6741646d696e3a205a65726f206572633230436f6e7472616374604482015267206164647265737360c01b6064820152608401610ac2565b5060fb80546001600160a01b0319166001600160a01b0392909216919091179055565b61010260205281600052604060002081815481106120a357600080fd5b90600052602060002001600091509150505481565b7f9b7946abd96dccbe6cfc6cc2c13300ab429d93e16fa72dc459eeccda73817f086120e281613bd5565b8260fd5481106121225760405162461bcd60e51b815260206004820152601d602482015260008051602061509f8339815191526044820152606401610ac2565b600060fd858154811061213757612137614e37565b600091825260208220600d909102019150600882015460ff16600481111561216157612161614670565b146121c25760405162461bcd60e51b815260206004820152602b60248201527f42657474696e6741646d696e3a20506f6f6c207374617475732073686f756c6460448201526a0818994810dc99585d195960aa1b6064820152608401610ac2565b600181810154600087815260ff6020908152604080832081516080810183528581528084018b815292810185905260608101859052815480880183559185529383902084516004909202019081559051805194959394919361222a93908501929101906144c8565b50604082015160028201805460ff19166001838181111561224d5761224d614670565b021790555060608201518160030155505060018260010160008282546122739190614ee5565b909155505060405181815286907fbf4e0902754249bb261d41b4db4a3a2c30976988a31c2881d7d7ded86813b8499060200160405180910390a2505050505050565b7fa5a0b70b385ff7611cd3840916bd08b10829e5bf9e6637cf79dd9a427fc0e2ab6122df81613bd5565b8160fd54811061231f5760405162461bcd60e51b815260206004820152601d602482015260008051602061509f8339815191526044820152606401610ac2565b600060fd848154811061233457612334614e37565b600091825260208220600d909102019150600882015460ff16600481111561235e5761235e614670565b148061238257506001600882015460ff16600481111561238057612380614670565b145b6123f45760405162461bcd60e51b815260206004820152603660248201527f42657474696e6741646d696e3a20506f6f6c207374617475732073686f756c6460448201527f2062652043726561746564206f722052756e6e696e67000000000000000000006064820152608401610ac2565b60088101805460ff1916600317905560405184907f03febafce5358e5ccb78f3e18dcc83d21c96a64775251b7d3537cecd8464333090600090a250505050565b610101546000906001600160a01b031633146124c65760405162461bcd60e51b8152602060048201526044602482018190527f42657474696e6741646d696e3a204f6e6c792062657474696e6720636f6e7472908201527f61637420697320617574686f72697a656420666f722074686973206f706572616064820152633a34b7b760e11b608482015260a401610ac2565b600060fd84815481106124db576124db614e37565b90600052602060002090600d02019050828160050160008282546110539190614ee5565b7f9b7946abd96dccbe6cfc6cc2c13300ab429d93e16fa72dc459eeccda73817f0861252981613bd5565b8160fd5481106125695760405162461bcd60e51b815260206004820152601d602482015260008051602061509f8339815191526044820152606401610ac2565b600060fd848154811061257e5761257e614e37565b600091825260208220600d909102019150600882015460ff1660048111156125a8576125a8614670565b146126095760405162461bcd60e51b815260206004820152602b60248201527f42657474696e6741646d696e3a20506f6f6c207374617475732073686f756c6460448201526a0818994810dc99585d195960aa1b6064820152608401610ac2565b60088101805460ff1916600117905560405184907f510ad7fdc6893c3992445eb80eeade3af54768c0d8dc2cc8fc57b1c9afa1491d90600090a250505050565b60fd818154811061265957600080fd5b90600052602060002090600d020160009150905080600001549080600101549080600201805461268890614e94565b80601f01602080910402602001604051908101604052809291908181526020018280546126b490614e94565b80156127015780601f106126d657610100808354040283529160200191612701565b820191906000526020600020905b8154815290600101906020018083116126e457829003601f168201915b505050600384015460048501546005860154600687015460078801546008890154600a8a0154600b8b0154600c909b0154999a96999598509396509194909360ff92831693926001600160a01b03821691600160a01b8104821691600160a81b909104168e565b610101546000906001600160a01b0316331461105e5760405162461bcd60e51b8152602060048201526044602482018190527f42657474696e6741646d696e3a204f6e6c792062657474696e6720636f6e7472908201527f61637420697320617574686f72697a656420666f722074686973206f706572616064820152633a34b7b760e11b608482015260a401610ac2565b7f9b7946abd96dccbe6cfc6cc2c13300ab429d93e16fa72dc459eeccda73817f0861282481613bd5565b8260fd5481106128645760405162461bcd60e51b815260206004820152601d602482015260008051602061509f8339815191526044820152606401610ac2565b600060fd858154811061287957612879614e37565b90600052602060002090600d02019050838160080160006101000a81548160ff021916908360048111156128af576128af614670565b02179055508360048111156128c6576128c6614670565b60405186907f0a01257e564247055199ee360074f44c7612d1bbb4f2d2158d39a8d89d55733290600090a35050505050565b7f9b7946abd96dccbe6cfc6cc2c13300ab429d93e16fa72dc459eeccda73817f0861292281613bd5565b8360fd5481106129625760405162461bcd60e51b815260206004820152601d602482015260008051602061509f8339815191526044820152606401610ac2565b600060fd868154811061297757612977614e37565b600091825260208220600d909102019150600882015460ff1660048111156129a1576129a1614670565b14806129c557506001600882015460ff1660048111156129c3576129c3614670565b145b612a375760405162461bcd60e51b815260206004820152603660248201527f42657474696e6741646d696e3a20506f6f6c207374617475732073686f756c6460448201527f2062652043726561746564206f722052756e6e696e67000000000000000000006064820152608401610ac2565b600a8101859055612a488486614ee5565b600b909101555050505050565b7fa5a0b70b385ff7611cd3840916bd08b10829e5bf9e6637cf79dd9a427fc0e2ab612a7f81613bd5565b8260fd548110612abf5760405162461bcd60e51b815260206004820152601d602482015260008051602061509f8339815191526044820152606401610ac2565b600060fd8581548110612ad457612ad4614e37565b60009182526020909120600d9091020190506004600882015460ff166004811115612b0157612b01614670565b1480612b2557506001600882015460ff166004811115612b2357612b23614670565b145b612b975760405162461bcd60e51b815260206004820152603560248201527f42657474696e6741646d696e3a20506f6f6c207374617475732073686f756c6460448201527f2062652052756e6e696e67206f7220436c6f73656400000000000000000000006064820152608401610ac2565b6000845111612c0e5760405162461bcd60e51b815260206004820152602f60248201527f42657474696e6741646d696e3a2053686f756c6420737065636966792061746c60448201527f65617374206f6e652077696e6e657200000000000000000000000000000000006064820152608401610ac2565b60088101805460ff191660021790558351612c32906009830190602087019061454c565b50847ffc5202f8bdf8ee68ee02ef3a56b265a2d6f9c5102b232ab3b5d1636adf0057de82600901604051610ca59190614e4d565b60ff6020528160005260406000208181548110612c8257600080fd5b906000526020600020906004020160009150915050806000015490806001018054612cac90614e94565b80601f0160208091040260200160405190810160405280929190818152602001828054612cd890614e94565b8015612d255780601f10612cfa57610100808354040283529160200191612d25565b820191906000526020600020905b815481529060010190602001808311612d0857829003601f168201915b505050506002830154600390930154919260ff1691905084565b610101546000906001600160a01b03163314612dd15760405162461bcd60e51b8152602060048201526044602482018190527f42657474696e6741646d696e3a204f6e6c792062657474696e6720636f6e7472908201527f61637420697320617574686f72697a656420666f722074686973206f706572616064820152633a34b7b760e11b608482015260a401610ac2565b600060fd8681548110612de657612de6614e37565b90600052602060002090600d0201905083816004016000828254612e0a9190614ee5565b925050819055506001816003016000828254612e269190614ee5565b9250508190555082816006016000828254612e419190614ee5565b9091555050600086815260ff60205260409020805485919087908110612e6957612e69614e37565b90600052602060002090600402016003016000828254612e899190614ee5565b90915550600198975050505050505050565b600082815260c96020526040902060010154612eb681613bd5565b61140a8383613c81565b7fa49807205ce4d355092ef5a8a18f56e8913cf4a201fbe287825b095693c21775612eea81613bd5565b6001600160a01b038216612f665760405162461bcd60e51b815260206004820152602260248201527f42657474696e6741646d696e3a205a65726f2062657474696e6720616464726560448201527f73730000000000000000000000000000000000000000000000000000000000006064820152608401610ac2565b5061010180546001600160a01b0319166001600160a01b0392909216919091179055565b7f9b7946abd96dccbe6cfc6cc2c13300ab429d93e16fa72dc459eeccda73817f08612fb481613bd5565b60fd548351881461302d5760405162461bcd60e51b815260206004820152603160248201527f42657474696e6741646d696e3a204d69736d61746368696e67207465616d732060448201527f616e64206e756d6265724f665465616d730000000000000000000000000000006064820152608401610ac2565b610104546040805160208082018590528251808303820181528284019384905280519101207f9b1a01cc0000000000000000000000000000000000000000000000000000000090925260448101919091526000916001600160a01b031690639b1a01cc90606401602060405180830381600087803b1580156130ae57600080fd5b505af11580156130c2573d6000803e3d6000fd5b505050506040513d601f19601f820116820180604052508101906130e69190614f14565b90506001600160a01b0381166131645760405162461bcd60e51b815260206004820152602360248201527f42657474696e6741646d696e3a20436f756c64206e6f7420637265617465206d60448201527f696e7400000000000000000000000000000000000000000000000000000000006064820152608401610ac2565b610101546040517f4571e3a600000000000000000000000000000000000000000000000000000000815282916001600160a01b0380841692634571e3a6926131b59233929116908a90600401614f31565b600060405180830381600087803b1580156131cf57600080fd5b505af11580156131e3573d6000803e3d6000fd5b50505050606060fd604051806101e001604052808681526020018d81526020018c815260200160008152602001600081526020016000815260200160008152602001600081526020016000600481111561323f5761323f614670565b81526020018381526020018b81526020018a8c61325c9190614ee5565b81526001600160a01b038516602080830191909152600060408084018290526060909301819052845460018181018755958252908290208451600d9092020190815583820151948101949094559082015180519293926132c292600285019201906144c8565b50606082015181600301556080820151816004015560a0820151816005015560c0820151816006015560e082015181600701556101008201518160080160006101000a81548160ff0219169083600481111561332057613320614670565b0217905550610120820151805161334191600984019160209091019061454c565b50610140820151600a820155610160820151600b820155610180820151600c90910180546101a08401516101c0909401511515600160a81b0260ff60a81b19941515600160a01b027fffffffffffffffffffffff0000000000000000000000000000000000000000009092166001600160a01b0390941693909317179290921617905560005b8b8110156134ad5760ff600086815260200190815260200160002060405180608001604052808381526020018a848151811061340557613405614e37565b602002602001015181526020016000600181111561342557613425614670565b81526000602091820181905283546001818101865594825290829020835160049092020190815582820151805193949193613468939285019291909101906144c8565b50604082015160028201805460ff19166001838181111561348b5761348b614670565b0217905550606082015181600301555050806134a690614f5d565b90506133c7565b50604080518c8152602081018b905285917f6a0c7fbf44f6331867816b75328f586816c7ff60b5f3b71d7ccd1da786a93898910160405180910390a25050505050505050505050565b6135216040805160808101825260008082526060602083015290918201908152602001600081525090565b600083815260ff6020526040902080548390811061354157613541614e37565b90600052602060002090600402016040518060800160405290816000820154815260200160018201805461357490614e94565b80601f01602080910402602001604051908101604052809291908181526020018280546135a090614e94565b80156135ed5780601f106135c2576101008083540402835291602001916135ed565b820191906000526020600020905b8154815290600101906020018083116135d057829003601f168201915b5050509183525050600282015460209091019060ff16600181111561361457613614614670565b600181111561362557613625614670565b8152602001600382015481525050905092915050565b7fa49807205ce4d355092ef5a8a18f56e8913cf4a201fbe287825b095693c2177561366581613bd5565b6001600160a01b0382166136bb5760405162461bcd60e51b815260206004820181905260248201527f42657474696e6741646d696e3a205a65726f2070726f787920616464726573736044820152606401610ac2565b5061010480546001600160a01b0319166001600160a01b0392909216919091179055565b7f9b7946abd96dccbe6cfc6cc2c13300ab429d93e16fa72dc459eeccda73817f0861370981613bd5565b8260fd5481106137495760405162461bcd60e51b815260206004820152601d602482015260008051602061509f8339815191526044820152606401610ac2565b600060fd858154811061375e5761375e614e37565b600091825260208220600d909102019150600882015460ff16600481111561378857613788614670565b146137e95760405162461bcd60e51b815260206004820152602b60248201527f42657474696e6741646d696e3a20506f6f6c207374617475732073686f756c6460448201526a0818994810dc99585d195960aa1b6064820152608401610ac2565b6001600160a01b03841661383f5760405162461bcd60e51b815260206004820152601f60248201527f42657474696e6741646d696e3a205a65726f206d696e742061646472657373006044820152606401610ac2565b600c0180546001600160a01b0319166001600160a01b039490941693909317909255505050565b600054610100900460ff16158080156138865750600054600160ff909116105b806138a05750303b1580156138a0575060005460ff166001145b6139125760405162461bcd60e51b815260206004820152602e60248201527f496e697469616c697a61626c653a20636f6e747261637420697320616c72656160448201527f647920696e697469616c697a65640000000000000000000000000000000000006064820152608401610ac2565b6000805460ff191660011790558015613935576000805461ff0019166101001790555b61393d613edd565b6001600160a01b0385166139a65760405162461bcd60e51b815260206004820152602a60248201527f42657474696e6741646d696e3a206572633230436f6e74726163742063616e6e6044820152696f74206265207a65726f60b01b6064820152608401610ac2565b6001600160a01b038416613a0f5760405162461bcd60e51b815260206004820152602a60248201527f42657474696e6741646d696e3a207661756c74436f6e74726163742063616e6e6044820152696f74206265207a65726f60b01b6064820152608401610ac2565b6001600160a01b038316613a8b5760405162461bcd60e51b815260206004820152602360248201527f42657474696e6741646d696e3a207369676e65722063616e6e6f74206265207a60448201527f65726f00000000000000000000000000000000000000000000000000000000006064820152608401610ac2565b6001600160a01b038216613b075760405162461bcd60e51b815260206004820152602260248201527f42657474696e6741646d696e3a2070726f78792063616e6e6f74206265207a6560448201527f726f0000000000000000000000000000000000000000000000000000000000006064820152608401610ac2565b60fb80546001600160a01b038088166001600160a01b03199283161790925560fc80548784169083161790556101008054868416908316179055610104805492851692909116919091179055613b7d7fa49807205ce4d355092ef5a8a18f56e8913cf4a201fbe287825b095693c2177533613f5c565b613b88600033613f5c565b8015613bce576000805461ff0019169055604051600181527f7f26b83ff96e1f2b6a682f133852f6798a09c465da95921460cefb38474024989060200160405180910390a15b5050505050565b6116148133613f66565b600082815260c9602090815260408083206001600160a01b038516845290915290205460ff1661149757600082815260c9602090815260408083206001600160a01b03851684529091529020805460ff19166001179055613c3d3390565b6001600160a01b0316816001600160a01b0316837f2f8788117e7eff1d82e926ec794901d17c78024a50270940304540a733656f0d60405160405180910390a45050565b600082815260c9602090815260408083206001600160a01b038516845290915290205460ff161561149757600082815260c9602090815260408083206001600160a01b0385168085529252808320805460ff1916905551339285917ff6391f5c32d9c69d2a47ea670b442974b53935d1edc7fd64eb21e047a839171b9190a45050565b7fa49807205ce4d355092ef5a8a18f56e8913cf4a201fbe287825b095693c2177561149781613bd5565b7f4910fdfa16fed3260ed0e7147f7cc6da11a60208b5b9406d12a635614ffd91435460ff1615613d615761140a83613fe6565b826001600160a01b03166352d1902d6040518163ffffffff1660e01b815260040160206040518083038186803b158015613d9a57600080fd5b505afa925050508015613dca575060408051601f3d908101601f19168201909252613dc791810190614f78565b60015b613e3c5760405162461bcd60e51b815260206004820152602e60248201527f45524331393637557067726164653a206e657720696d706c656d656e7461746960448201527f6f6e206973206e6f7420555550530000000000000000000000000000000000006064820152608401610ac2565b7f360894a13ba1a3210667c828492db98dca3e2076cc3735a920a3ca505d382bbc8114613ed15760405162461bcd60e51b815260206004820152602960248201527f45524331393637557067726164653a20756e737570706f727465642070726f7860448201527f6961626c655555494400000000000000000000000000000000000000000000006064820152608401610ac2565b5061140a8383836140a4565b600054610100900460ff16613f5a5760405162461bcd60e51b815260206004820152602b60248201527f496e697469616c697a61626c653a20636f6e7472616374206973206e6f74206960448201527f6e697469616c697a696e670000000000000000000000000000000000000000006064820152608401610ac2565b565b6114978282613bdf565b600082815260c9602090815260408083206001600160a01b038516845290915290205460ff1661149757613fa4816001600160a01b031660146140cf565b613faf8360206140cf565b604051602001613fc0929190614f91565b60408051601f198184030181529082905262461bcd60e51b8252610ac291600401615012565b6001600160a01b0381163b6140635760405162461bcd60e51b815260206004820152602d60248201527f455243313936373a206e657720696d706c656d656e746174696f6e206973206e60448201527f6f74206120636f6e7472616374000000000000000000000000000000000000006064820152608401610ac2565b7f360894a13ba1a3210667c828492db98dca3e2076cc3735a920a3ca505d382bbc80546001600160a01b0319166001600160a01b0392909216919091179055565b6140ad836142b0565b6000825111806140ba5750805b1561140a576140c983836142f0565b50505050565b606060006140de836002615025565b6140e9906002614ee5565b67ffffffffffffffff81111561410157614101614926565b6040519080825280601f01601f19166020018201604052801561412b576020820181803683370190505b5090507f30000000000000000000000000000000000000000000000000000000000000008160008151811061416257614162614e37565b60200101906001600160f81b031916908160001a9053507f7800000000000000000000000000000000000000000000000000000000000000816001815181106141ad576141ad614e37565b60200101906001600160f81b031916908160001a90535060006141d1846002615025565b6141dc906001614ee5565b90505b6001811115614261577f303132333435363738396162636465660000000000000000000000000000000085600f166010811061421d5761421d614e37565b1a60f81b82828151811061423357614233614e37565b60200101906001600160f81b031916908160001a90535060049490941c9361425a81615044565b90506141df565b50831561105e5760405162461bcd60e51b815260206004820181905260248201527f537472696e67733a20686578206c656e67746820696e73756666696369656e746044820152606401610ac2565b6142b981613fe6565b6040516001600160a01b038216907fbc7cd75a20ee27fd9adebab32041f755214dbc6bffa90cc0225b39da2e5c2d3b90600090a250565b60606001600160a01b0383163b61436f5760405162461bcd60e51b815260206004820152602660248201527f416464726573733a2064656c65676174652063616c6c20746f206e6f6e2d636f60448201527f6e747261637400000000000000000000000000000000000000000000000000006064820152608401610ac2565b600080846001600160a01b03168460405161438a919061505b565b600060405180830381855af49150503d80600081146143c5576040519150601f19603f3d011682016040523d82523d6000602084013e6143ca565b606091505b50915091506143f28282604051806060016040528060278152602001615078602791396143fb565b95945050505050565b6060831561440a57508161105e565b82511561441a5782518084602001fd5b8160405162461bcd60e51b8152600401610ac29190615012565b604051806101e0016040528060008152602001600081526020016060815260200160008152602001600081526020016000815260200160008152602001600081526020016000600481111561448b5761448b614670565b815260200160608152602001600081526020016000815260200160006001600160a01b031681526020016000151581526020016000151581525090565b8280546144d490614e94565b90600052602060002090601f0160209004810192826144f6576000855561453c565b82601f1061450f57805160ff191683800117855561453c565b8280016001018555821561453c579182015b8281111561453c578251825591602001919060010190614521565b50614548929150614586565b5090565b82805482825590600052602060002090810192821561453c579160200282018281111561453c578251825591602001919060010190614521565b5b808211156145485760008155600101614587565b600080604083850312156145ae57600080fd5b50508035926020909101359150565b6000602082840312156145cf57600080fd5b81357fffffffff000000000000000000000000000000000000000000000000000000008116811461105e57600080fd5b60006020828403121561461157600080fd5b5035919050565b60005b8381101561463357818101518382015260200161461b565b838111156140c95750506000910152565b6000815180845261465c816020860160208601614618565b601f01601f19169290920160200192915050565b634e487b7160e01b600052602160045260246000fd5b6005811061469657614696614670565b9052565b600081518084526020808501945080840160005b838110156146ca578151875295820195908201906001016146ae565b509495945050505050565b602081528151602082015260208201516040820152600060408301516101e0806060850152614708610200850183614644565b915060608501516080850152608085015160a085015260a085015160c085015260c085015160e085015260e085015161010081818701528087015191505061012061475581870183614686565b80870151915050610140601f198685030181870152614774848361469a565b90870151610160878101919091528701516101808088019190915287015190935090506101a06147ae818701836001600160a01b03169052565b86015190506101c06147c38682018315159052565b90950151151593019290925250919050565b6001600160a01b038116811461161457600080fd5b6000806000606084860312156147ff57600080fd5b833561480a816147d5565b95602085013595506040909401359392505050565b6000806040838503121561483257600080fd5b823591506020830135614844816147d5565b809150509250929050565b60006020828403121561486157600080fd5b813561105e816147d5565b6002811061469657614696614670565b80518252600060208201516080602085015261489b6080850182614644565b905060408301516148af604086018261486c565b50606083015160608501528091505092915050565b6000602080830181845280855180835260408601915060408160051b870101925083870160005b8281101561491957603f1988860301845261490785835161487c565b945092850192908501906001016148eb565b5092979650505050505050565b634e487b7160e01b600052604160045260246000fd5b604051601f8201601f1916810167ffffffffffffffff8111828210171561496557614965614926565b604052919050565b600067ffffffffffffffff83111561498757614987614926565b61499a601f8401601f191660200161493c565b90508281528383830111156149ae57600080fd5b828260208301376000602084830101529392505050565b600080604083850312156149d857600080fd5b82356149e3816147d5565b9150602083013567ffffffffffffffff8111156149ff57600080fd5b8301601f81018513614a1057600080fd5b614a1f8582356020840161496d565b9150509250929050565b600082601f830112614a3a57600080fd5b61105e8383356020850161496d565b60008060408385031215614a5c57600080fd5b82359150602083013567ffffffffffffffff811115614a7a57600080fd5b614a1f85828601614a29565b8e81528d60208201526101c060408201526000614aa76101c083018f614644565b90508c60608301528b60808301528a60a08301528960c08301528860e0830152614ad5610100830189614686565b86610120830152856101408301526001600160a01b038516610160830152831515610180830152614b0b6101a083018415159052565b9f9e505050505050505050505050505050565b60008060408385031215614b3157600080fd5b8235915060208301356005811061484457600080fd5b600080600060608486031215614b5c57600080fd5b505081359360208301359350604090920135919050565b600067ffffffffffffffff821115614b8d57614b8d614926565b5060051b60200190565b60008060408385031215614baa57600080fd5b8235915060208084013567ffffffffffffffff811115614bc957600080fd5b8401601f81018613614bda57600080fd5b8035614bed614be882614b73565b61493c565b81815260059190911b82018301908381019088831115614c0c57600080fd5b928401925b82841015614c2a57833582529284019290840190614c11565b80955050505050509250929050565b848152608060208201526000614c526080830186614644565b9050614c61604083018561486c565b82606083015295945050505050565b600080600080600060a08688031215614c8857600080fd5b8535614c93816147d5565b97602087013597506040870135966060810135965060800135945092505050565b60008060008060008060c08789031215614ccd57600080fd5b8635955060208088013567ffffffffffffffff80821115614ced57600080fd5b614cf98b838c01614a29565b975060408a0135965060608a0135955060808a0135915080821115614d1d57600080fd5b818a0191508a601f830112614d3157600080fd5b8135614d3f614be882614b73565b81815260059190911b8301840190848101908d831115614d5e57600080fd5b8585015b83811015614d94578481351115614d7857600080fd5b614d878f888335890101614a29565b8352918601918601614d62565b509650505060a08a0135925080831115614dad57600080fd5b5050614dbb89828a01614a29565b9150509295509295509295565b60208152600061105e602083018461487c565b60008060008060808587031215614df157600080fd5b8435614dfc816147d5565b93506020850135614e0c816147d5565b92506040850135614e1c816147d5565b91506060850135614e2c816147d5565b939692955090935050565b634e487b7160e01b600052603260045260246000fd5b6020808252825482820181905260008481528281209092916040850190845b81811015614e8857835483526001938401939285019201614e6c565b50909695505050505050565b600181811c90821680614ea857607f821691505b60208210811415614ec957634e487b7160e01b600052602260045260246000fd5b50919050565b634e487b7160e01b600052601160045260246000fd5b60008219821115614ef857614ef8614ecf565b500190565b600082821015614f0f57614f0f614ecf565b500390565b600060208284031215614f2657600080fd5b815161105e816147d5565b60006001600160a01b038086168352808516602084015250606060408301526143f26060830184614644565b6000600019821415614f7157614f71614ecf565b5060010190565b600060208284031215614f8a57600080fd5b5051919050565b7f416363657373436f6e74726f6c3a206163636f756e7420000000000000000000815260008351614fc9816017850160208801614618565b7f206973206d697373696e6720726f6c65200000000000000000000000000000006017918401918201528351615006816028840160208801614618565b01602801949350505050565b60208152600061105e6020830184614644565b600081600019048311821515161561503f5761503f614ecf565b500290565b60008161505357615053614ecf565b506000190190565b6000825161506d818460208701614618565b919091019291505056fe416464726573733a206c6f772d6c6576656c2064656c65676174652063616c6c206661696c656442657474696e6741646d696e3a204964206973206e6f742076616c6964000000a2646970667358221220779fc516c612247cf33aa8d2b96a4d7bc87ff6fc6c16f3a19e5925187f4a478a64736f6c63430008090033",
  "linkReferences": {},
  "deployedLinkReferences": {}
}